There's something odd going on in this network trace. Even though the trace is
almost 10,000 lines(!), you should be able to figure out what is happening from
the first 30-40 packets.

Start by drawing a diagram of all the different kinds of requests that are
happening, and see if you can match that set of requests to something that
might happen on a real network.

Hint: The protocols in this trace have been intentionally randomized by the
user. Why?


20:46:21.877993 arp who-has dillinger (Broadcast) tell flynn
	0x0000:  ffff ffff ffff 000e 0c66 83a8 0806 0001  .........f......
	0x0010:  0800 0604 0001 000e 0c66 83a8 0a01 0104  .........f......
	0x0020:  ffff ffff ffff 0a01 0102                 ..........
20:46:21.878274 arp reply dillinger is-at 00:04:23:ae:cb:68
	0x0000:  000e 0c66 83a8 0004 23ae cb68 0806 0001  ...f....#..h....
	0x0010:  0800 0604 0002 0004 23ae cb68 0a01 0102  ........#..h....
	0x0020:  000e 0c66 83a8 0a01 0104 0000 0000 0000  ...f............
	0x0030:  0000 0000 0000 0000 0000 0000            ............
20:46:21.886051 IP (tos 0x0, ttl  45, id 63573, offset 0, flags [none], proto 6, length: 44) flynn.54256 > dillinger.telnet: S [tcp sum ok] 278379580:278379580(0) win 2048 <mss 1460>
	0x0000:  0004 23ae cb68 000e 0c66 83a8 0800 4500  ..#..h...f....E.
	0x0010:  002c f855 0000 2d06 7f6f 0a01 0104 0a01  .,.U..-..o......
	0x0020:  0102 d3f0 0017 1097 bc3c 0000 0000 6002  .........<....`.
	0x0030:  0800 d943 0000 0204 05b4                 ...C......
20:46:21.886141 IP (tos 0x0, ttl  41, id 1688, offset 0, flags [none], proto 6, length: 44) flynn.54256 > dillinger.smtp: S [tcp sum ok] 278379580:278379580(0) win 2048 <mss 1460>
	0x0000:  0004 23ae cb68 000e 0c66 83a8 0800 4500  ..#..h...f....E.
	0x0010:  002c 0698 0000 2906 752d 0a01 0104 0a01  .,....).u-......
	0x0020:  0102 d3f0 0019 1097 bc3c 0000 0000 6002  .........<....`.
	0x0030:  0800 d941 0000 0204 05b4                 ...A......
20:46:21.886202 IP (tos 0x0, ttl  43, id 15795, offset 0, flags [none], proto 6, length: 44) flynn.54256 > dillinger.1723: S [tcp sum ok] 278379580:278379580(0) win 4096 <mss 1460>
	0x0000:  0004 23ae cb68 000e 0c66 83a8 0800 4500  ..#..h...f....E.
	0x0010:  002c 3db3 0000 2b06 3c12 0a01 0104 0a01  .,=...+.<.......
	0x0020:  0102 d3f0 06bb 1097 bc3c 0000 0000 6002  .........<....`.
	0x0030:  1000 ca9f 0000 0204 05b4                 ..........
20:46:21.886262 IP (tos 0x0, ttl  49, id 61881, offset 0, flags [none], proto 6, length: 44) flynn.54256 > dillinger.ldaps: S [tcp sum ok] 278379580:278379580(0) win 2048 <mss 1460>
	0x0000:  0004 23ae cb68 000e 0c66 83a8 0800 4500  ..#..h...f....E.
	0x0010:  002c f1b9 0000 3106 820b 0a01 0104 0a01  .,....1.........
	0x0020:  0102 d3f0 027c 1097 bc3c 0000 0000 6002  .....|...<....`.
	0x0030:  0800 d6de 0000 0204 05b4                 ..........
20:46:21.886328 IP (tos 0x0, ttl  38, id 52735, offset 0, flags [none], proto 6, length: 44) flynn.54256 > dillinger.ftp: S [tcp sum ok] 278379580:278379580(0) win 3072 <mss 1460>
	0x0000:  0004 23ae cb68 000e 0c66 83a8 0800 4500  ..#..h...f....E.
	0x0010:  002c cdff 0000 2606 b0c5 0a01 0104 0a01  .,....&.........
	0x0020:  0102 d3f0 0015 1097 bc3c 0000 0000 6002  .........<....`.
	0x0030:  0c00 d545 0000 0204 05b4                 ...E......
20:46:21.886386 IP (tos 0x0, ttl  43, id 32481, offset 0, flags [none], proto 6, length: 44) flynn.54256 > dillinger.domain: S [tcp sum ok] 278379580:278379580(0) win 4096 <mss 1460>
	0x0000:  0004 23ae cb68 000e 0c66 83a8 0800 4500  ..#..h...f....E.
	0x0010:  002c 7ee1 0000 2b06 fae3 0a01 0104 0a01  .,~...+.........
	0x0020:  0102 d3f0 0035 1097 bc3c 0000 0000 6002  .....5...<....`.
	0x0030:  1000 d125 0000 0204 05b4                 ...%......
20:46:21.886444 IP (tos 0x0, ttl  53, id 22392, offset 0, flags [none], proto 6, length: 44) flynn.54256 > dillinger.rtsp: S [tcp sum ok] 278379580:278379580(0) win 2048 <mss 1460>
	0x0000:  0004 23ae cb68 000e 0c66 83a8 0800 4500  ..#..h...f....E.
	0x0010:  002c 5778 0000 3506 184d 0a01 0104 0a01  .,Wx..5..M......
	0x0020:  0102 d3f0 022a 1097 bc3c 0000 0000 6002  .....*...<....`.
	0x0030:  0800 d730 0000 0204 05b4                 ...0......
20:46:21.886501 IP (tos 0x0, ttl  51, id 10785, offset 0, flags [none], proto 6, length: 44) flynn.54256 > dillinger.ldap: S [tcp sum ok] 278379580:278379580(0) win 4096 <mss 1460>
	0x0000:  0004 23ae cb68 000e 0c66 83a8 0800 4500  ..#..h...f....E.
	0x0010:  002c 2a21 0000 3306 47a4 0a01 0104 0a01  .,*!..3.G.......
	0x0020:  0102 d3f0 0185 1097 bc3c 0000 0000 6002  .........<....`.
	0x0030:  1000 cfd5 0000 0204 05b4                 ..........
20:46:21.886518 IP (tos 0x0, ttl  64, id 0, offset 0, flags [DF], proto 6, length: 44) dillinger.telnet > flynn.54256: S [tcp sum ok] 3662289371:3662289371(0) ack 278379581 win 5840 <mss 1460>
	0x0000:  000e 0c66 83a8 0004 23ae cb68 0800 4500  ...f....#..h..E.
	0x0010:  002c 0000 4000 4006 24c5 0a01 0102 0a01  .,..@.@.$.......
	0x0020:  0104 0017 d3f0 da4a 19db 1097 bc3d 6012  .......J.....=`.
	0x0030:  16d0 d63c 0000 0204 05b4 0000            ...<........
20:46:21.886529 IP (tos 0x0, ttl  64, id 14, offset 0, flags [DF], proto 6, length: 40) flynn.54256 > dillinger.telnet: R [tcp sum ok] 278379581:278379581(0) win 0
	0x0000:  0004 23ae cb68 000e 0c66 83a8 0800 4500  ..#..h...f....E.
	0x0010:  0028 000e 4000 4006 24bb 0a01 0104 0a01  .(..@.@.$.......
	0x0020:  0102 d3f0 0017 1097 bc3d 0000 0000 5004  .........=....P.
	0x0030:  0000 f8fc 0000                           ......
20:46:21.886533 IP (tos 0x0, ttl  64, id 3352, offset 0, flags [DF], proto 6, length: 40) dillinger.smtp > flynn.54256: R [tcp sum ok] 0:0(0) ack 278379581 win 0
	0x0000:  000e 0c66 83a8 0004 23ae cb68 0800 4500  ...f....#..h..E.
	0x0010:  0028 0d18 4000 4006 17b1 0a01 0102 0a01  .(..@.@.........
	0x0020:  0104 0019 d3f0 0000 0000 1097 bc3d 5014  .............=P.
	0x0030:  0000 f8ea 0000 0000 0000 0000            ............
20:46:21.886537 IP (tos 0x0, ttl  64, id 3353, offset 0, flags [DF], proto 6, length: 40) dillinger.1723 > flynn.54256: R [tcp sum ok] 0:0(0) ack 278379581 win 0
	0x0000:  000e 0c66 83a8 0004 23ae cb68 0800 4500  ...f....#..h..E.
	0x0010:  0028 0d19 4000 4006 17b0 0a01 0102 0a01  .(..@.@.........
	0x0020:  0104 06bb d3f0 0000 0000 1097 bc3d 5014  .............=P.
	0x0030:  0000 f248 0000 0000 0000 0000            ...H........
20:46:21.886540 IP (tos 0x0, ttl  64, id 3354, offset 0, flags [DF], proto 6, length: 40) dillinger.ldaps > flynn.54256: R [tcp sum ok] 0:0(0) ack 278379581 win 0
	0x0000:  000e 0c66 83a8 0004 23ae cb68 0800 4500  ...f....#..h..E.
	0x0010:  0028 0d1a 4000 4006 17af 0a01 0102 0a01  .(..@.@.........
	0x0020:  0104 027c d3f0 0000 0000 1097 bc3d 5014  ...|.........=P.
	0x0030:  0000 f687 0000 0000 0000 0000            ............
20:46:21.886766 IP (tos 0x0, ttl  64, id 3355, offset 0, flags [DF], proto 6, length: 40) dillinger.ftp > flynn.54256: R [tcp sum ok] 0:0(0) ack 278379581 win 0
	0x0000:  000e 0c66 83a8 0004 23ae cb68 0800 4500  ...f....#..h..E.
	0x0010:  0028 0d1b 4000 4006 17ae 0a01 0102 0a01  .(..@.@.........
	0x0020:  0104 0015 d3f0 0000 0000 1097 bc3d 5014  .............=P.
	0x0030:  0000 f8ee 0000 0000 0000 0000            ............
20:46:21.886771 IP (tos 0x0, ttl  64, id 3356, offset 0, flags [DF], proto 6, length: 40) dillinger.domain > flynn.54256: R [tcp sum ok] 0:0(0) ack 278379581 win 0
	0x0000:  000e 0c66 83a8 0004 23ae cb68 0800 4500  ...f....#..h..E.
	0x0010:  0028 0d1c 4000 4006 17ad 0a01 0102 0a01  .(..@.@.........
	0x0020:  0104 0035 d3f0 0000 0000 1097 bc3d 5014  ...5.........=P.
	0x0030:  0000 f8ce 0000 0000 0000 0000            ............
20:46:21.886774 IP (tos 0x0, ttl  64, id 3357, offset 0, flags [DF], proto 6, length: 40) dillinger.rtsp > flynn.54256: R [tcp sum ok] 0:0(0) ack 278379581 win 0
	0x0000:  000e 0c66 83a8 0004 23ae cb68 0800 4500  ...f....#..h..E.
	0x0010:  0028 0d1d 4000 4006 17ac 0a01 0102 0a01  .(..@.@.........
	0x0020:  0104 022a d3f0 0000 0000 1097 bc3d 5014  ...*.........=P.
	0x0030:  0000 f6d9 0000 0000 0000 0000            ............
20:46:21.886778 IP (tos 0x0, ttl  64, id 3358, offset 0, flags [DF], proto 6, length: 40) dillinger.ldap > flynn.54256: R [tcp sum ok] 0:0(0) ack 278379581 win 0
	0x0000:  000e 0c66 83a8 0004 23ae cb68 0800 4500  ...f....#..h..E.
	0x0010:  0028 0d1e 4000 4006 17ab 0a01 0102 0a01  .(..@.@.........
	0x0020:  0104 0185 d3f0 0000 0000 1097 bc3d 5014  .............=P.
	0x0030:  0000 f77e 0000 0000 0000 0000            ...~........
20:46:21.886931 IP (tos 0x0, ttl  56, id 26278, offset 0, flags [none], proto 6, length: 44) flynn.54256 > dillinger.256: S [tcp sum ok] 278379580:278379580(0) win 1024 <mss 1460>
	0x0000:  0004 23ae cb68 000e 0c66 83a8 0800 4500  ..#..h...f....E.
	0x0010:  002c 66a6 0000 3806 061f 0a01 0104 0a01  .,f...8.........
	0x0020:  0102 d3f0 0100 1097 bc3c 0000 0000 6002  .........<....`.
	0x0030:  0400 dc5a 0000 0204 05b4                 ...Z......
20:46:21.886999 IP (tos 0x0, ttl  52, id 4369, offset 0, flags [none], proto 6, length: 44) flynn.54256 > dillinger.ssh: S [tcp sum ok] 278379580:278379580(0) win 1024 <mss 1460>
	0x0000:  0004 23ae cb68 000e 0c66 83a8 0800 4500  ..#..h...f....E.
	0x0010:  002c 1111 0000 3406 5fb4 0a01 0104 0a01  .,....4._.......
	0x0020:  0102 d3f0 0016 1097 bc3c 0000 0000 6002  .........<....`.
	0x0030:  0400 dd44 0000 0204 05b4                 ...D......
20:46:21.887271 IP (tos 0x0, ttl  64, id 3359, offset 0, flags [DF], proto 6, length: 40) dillinger.256 > flynn.54256: R [tcp sum ok] 0:0(0) ack 278379581 win 0
	0x0000:  000e 0c66 83a8 0004 23ae cb68 0800 4500  ...f....#..h..E.
	0x0010:  0028 0d1f 4000 4006 17aa 0a01 0102 0a01  .(..@.@.........
	0x0020:  0104 0100 d3f0 0000 0000 1097 bc3d 5014  .............=P.
	0x0030:  0000 f803 0000 0000 0000 0000            ............
20:46:21.887277 IP (tos 0x0, ttl  64, id 0, offset 0, flags [DF], proto 6, length: 44) dillinger.ssh > flynn.54256: S [tcp sum ok] 3663218125:3663218125(0) ack 278379581 win 5840 <mss 1460>
	0x0000:  000e 0c66 83a8 0004 23ae cb68 0800 4500  ...f....#..h..E.
	0x0010:  002c 0000 4000 4006 24c5 0a01 0102 0a01  .,..@.@.$.......
	0x0020:  0104 0016 d3f0 da58 45cd 1097 bc3d 6012  .......XE....=`.
	0x0030:  16d0 aa3d 0000 0204 05b4 0000            ...=........
20:46:21.887281 IP (tos 0x0, ttl  64, id 15, offset 0, flags [DF], proto 6, length: 40) flynn.54256 > dillinger.ssh: R [tcp sum ok] 278379581:278379581(0) win 0
	0x0000:  0004 23ae cb68 000e 0c66 83a8 0800 4500  ..#..h...f....E.
	0x0010:  0028 000f 4000 4006 24ba 0a01 0104 0a01  .(..@.@.$.......
	0x0020:  0102 d3f0 0016 1097 bc3d 0000 0000 5004  .........=....P.
	0x0030:  0000 f8fd 0000                           ......
20:46:21.887464 IP (tos 0x0, ttl  41, id 7787, offset 0, flags [none], proto 6, length: 44) flynn.54256 > dillinger.http: S [tcp sum ok] 278379580:278379580(0) win 2048 <mss 1460>
	0x0000:  0004 23ae cb68 000e 0c66 83a8 0800 4500  ..#..h...f....E.
	0x0010:  002c 1e6b 0000 2906 5d5a 0a01 0104 0a01  .,.k..).]Z......
	0x0020:  0102 d3f0 0050 1097 bc3c 0000 0000 6002  .....P...<....`.
	0x0030:  0800 d90a 0000 0204 05b4                 ..........
20:46:21.887528 IP (tos 0x0, ttl  50, id 41689, offset 0, flags [none], proto 6, length: 44) flynn.54256 > dillinger.https: S [tcp sum ok] 278379580:278379580(0) win 3072 <mss 1460>
	0x0000:  0004 23ae cb68 000e 0c66 83a8 0800 4500  ..#..h...f....E.
	0x0010:  002c a2d9 0000 3206 cfeb 0a01 0104 0a01  .,....2.........
	0x0020:  0102 d3f0 01bb 1097 bc3c 0000 0000 6002  .........<....`.
	0x0030:  0c00 d39f 0000 0204 05b4                 ..........
20:46:21.887586 IP (tos 0x0, ttl  46, id 62593, offset 0, flags [none], proto 6, length: 44) flynn.54256 > dillinger.3389: S [tcp sum ok] 278379580:278379580(0) win 3072 <mss 1460>
	0x0000:  0004 23ae cb68 000e 0c66 83a8 0800 4500  ..#..h...f....E.
	0x0010:  002c f481 0000 2e06 8243 0a01 0104 0a01  .,.......C......
	0x0020:  0102 d3f0 0d3d 1097 bc3c 0000 0000 6002  .....=...<....`.
	0x0030:  0c00 c81d 0000 0204 05b4                 ..........
20:46:21.887645 IP (tos 0x0, ttl  47, id 21393, offset 0, flags [none], proto 6, length: 44) flynn.54256 > dillinger.auth: S [tcp sum ok] 278379580:278379580(0) win 4096 <mss 1460>
	0x0000:  0004 23ae cb68 000e 0c66 83a8 0800 4500  ..#..h...f....E.
	0x0010:  002c 5391 0000 2f06 2234 0a01 0104 0a01  .,S.../."4......
	0x0020:  0102 d3f0 0071 1097 bc3c 0000 0000 6002  .....q...<....`.
	0x0030:  1000 d0e9 0000 0204 05b4                 ..........
20:46:21.887702 IP (tos 0x0, ttl  51, id 2317, offset 0, flags [none], proto 6, length: 44) flynn.54256 > dillinger.1453: S [tcp sum ok] 278379580:278379580(0) win 4096 <mss 1460>
	0x0000:  0004 23ae cb68 000e 0c66 83a8 0800 4500  ..#..h...f....E.
	0x0010:  002c 090d 0000 3306 68b8 0a01 0104 0a01  .,....3.h.......
	0x0020:  0102 d3f0 05ad 1097 bc3c 0000 0000 6002  .........<....`.
	0x0030:  1000 cbad 0000 0204 05b4                 ..........
20:46:21.887767 IP (tos 0x0, ttl  64, id 0, offset 0, flags [DF], proto 6, length: 44) dillinger.http > flynn.54256: S [tcp sum ok] 3663986759:3663986759(0) ack 278379581 win 5840 <mss 1460>
	0x0000:  000e 0c66 83a8 0004 23ae cb68 0800 4500  ...f....#..h..E.
	0x0010:  002c 0000 4000 4006 24c5 0a01 0102 0a01  .,..@.@.$.......
	0x0020:  0104 0050 d3f0 da64 0047 1097 bc3d 6012  ...P...d.G...=`.
	0x0030:  16d0 ef7d 0000 0204 05b4 0000            ...}........
20:46:21.887773 IP (tos 0x0, ttl  64, id 16, offset 0, flags [DF], proto 6, length: 40) flynn.54256 > dillinger.http: R [tcp sum ok] 278379581:278379581(0) win 0
	0x0000:  0004 23ae cb68 000e 0c66 83a8 0800 4500  ..#..h...f....E.
	0x0010:  0028 0010 4000 4006 24b9 0a01 0104 0a01  .(..@.@.$.......
	0x0020:  0102 d3f0 0050 1097 bc3d 0000 0000 5004  .....P...=....P.
	0x0030:  0000 f8c3 0000                           ......
20:46:21.887777 IP (tos 0x0, ttl  64, id 0, offset 0, flags [DF], proto 6, length: 44) dillinger.https > flynn.54256: S [tcp sum ok] 3669964958:3669964958(0) ack 278379581 win 5840 <mss 1460>
	0x0000:  000e 0c66 83a8 0004 23ae cb68 0800 4500  ...f....#..h..E.
	0x0010:  002c 0000 4000 4006 24c5 0a01 0102 0a01  .,..@.@.$.......
	0x0020:  0104 01bb d3f0 dabf 389e 1097 bc3d 6012  ........8....=`.
	0x0030:  16d0 b560 0000 0204 05b4 0000            ...`........
20:46:21.887782 IP (tos 0x0, ttl  64, id 17, offset 0, flags [DF], proto 6, length: 40) flynn.54256 > dillinger.https: R [tcp sum ok] 278379581:278379581(0) win 0
	0x0000:  0004 23ae cb68 000e 0c66 83a8 0800 4500  ..#..h...f....E.
	0x0010:  0028 0011 4000 4006 24b8 0a01 0104 0a01  .(..@.@.$.......
	0x0020:  0102 d3f0 01bb 1097 bc3d 0000 0000 5004  .........=....P.
	0x0030:  0000 f758 0000                           ...X..
20:46:21.887941 IP (tos 0x0, ttl  41, id 60033, offset 0, flags [none], proto 6, length: 44) flynn.54256 > dillinger.8: S [tcp sum ok] 278379580:278379580(0) win 2048 <mss 1460>
	0x0000:  0004 23ae cb68 000e 0c66 83a8 0800 4500  ..#..h...f....E.
	0x0010:  002c ea81 0000 2906 9143 0a01 0104 0a01  .,....)..C......
	0x0020:  0102 d3f0 0008 1097 bc3c 0000 0000 6002  .........<....`.
	0x0030:  0800 d952 0000 0204 05b4                 ...R......
20:46:21.888004 IP (tos 0x0, ttl  58, id 32299, offset 0, flags [none], proto 6, length: 44) flynn.54256 > dillinger.1483: S [tcp sum ok] 278379580:278379580(0) win 3072 <mss 1460>
	0x0000:  0004 23ae cb68 000e 0c66 83a8 0800 4500  ..#..h...f....E.
	0x0010:  002c 7e2b 0000 3a06 ec99 0a01 0104 0a01  .,~+..:.........
	0x0020:  0102 d3f0 05cb 1097 bc3c 0000 0000 6002  .........<....`.
	0x0030:  0c00 cf8f 0000 0204 05b4                 ..........
20:46:21.888017 IP (tos 0x0, ttl  64, id 3360, offset 0, flags [DF], proto 6, length: 40) dillinger.3389 > flynn.54256: R [tcp sum ok] 0:0(0) ack 278379581 win 0
	0x0000:  000e 0c66 83a8 0004 23ae cb68 0800 4500  ...f....#..h..E.
	0x0010:  0028 0d20 4000 4006 17a9 0a01 0102 0a01  .(..@.@.........
	0x0020:  0104 0d3d d3f0 0000 0000 1097 bc3d 5014  ...=.........=P.
	0x0030:  0000 ebc6 0000 0000 0000 0000            ............
20:46:21.888021 IP (tos 0x0, ttl  64, id 3361, offset 0, flags [DF], proto 6, length: 40) dillinger.auth > flynn.54256: R [tcp sum ok] 0:0(0) ack 278379581 win 0
	0x0000:  000e 0c66 83a8 0004 23ae cb68 0800 4500  ...f....#..h..E.
	0x0010:  0028 0d21 4000 4006 17a8 0a01 0102 0a01  .(.!@.@.........
	0x0020:  0104 0071 d3f0 0000 0000 1097 bc3d 5014  ...q.........=P.
	0x0030:  0000 f892 0000 0000 0000 0000            ............
20:46:21.888024 IP (tos 0x0, ttl  64, id 3362, offset 0, flags [DF], proto 6, length: 40) dillinger.1453 > flynn.54256: R [tcp sum ok] 0:0(0) ack 278379581 win 0
	0x0000:  000e 0c66 83a8 0004 23ae cb68 0800 4500  ...f....#..h..E.
	0x0010:  0028 0d22 4000 4006 17a7 0a01 0102 0a01  .(."@.@.........
	0x0020:  0104 05ad d3f0 0000 0000 1097 bc3d 5014  .............=P.
	0x0030:  0000 f356 0000 0000 0000 0000            ...V........
20:46:21.888204 IP (tos 0x0, ttl  53, id 44792, offset 0, flags [none], proto 6, length: 44) flynn.54256 > dillinger.3372: S [tcp sum ok] 278379580:278379580(0) win 2048 <mss 1460>
	0x0000:  0004 23ae cb68 000e 0c66 83a8 0800 4500  ..#..h...f....E.
	0x0010:  002c aef8 0000 3506 c0cc 0a01 0104 0a01  .,....5.........
	0x0020:  0102 d3f0 0d2c 1097 bc3c 0000 0000 6002  .....,...<....`.
	0x0030:  0800 cc2e 0000 0204 05b4                 ..........
20:46:21.888266 IP (tos 0x0, ttl  64, id 3363, offset 0, flags [DF], proto 6, length: 40) dillinger.8 > flynn.54256: R [tcp sum ok] 0:0(0) ack 278379581 win 0
	0x0000:  000e 0c66 83a8 0004 23ae cb68 0800 4500  ...f....#..h..E.
	0x0010:  0028 0d23 4000 4006 17a6 0a01 0102 0a01  .(.#@.@.........
	0x0020:  0104 0008 d3f0 0000 0000 1097 bc3d 5014  .............=P.
	0x0030:  0000 f8fb 0000 0000 0000 0000            ............
20:46:21.888270 IP (tos 0x0, ttl  64, id 3364, offset 0, flags [DF], proto 6, length: 40) dillinger.1483 > flynn.54256: R [tcp sum ok] 0:0(0) ack 278379581 win 0
	0x0000:  000e 0c66 83a8 0004 23ae cb68 0800 4500  ...f....#..h..E.
	0x0010:  0028 0d24 4000 4006 17a5 0a01 0102 0a01  .(.$@.@.........
	0x0020:  0104 05cb d3f0 0000 0000 1097 bc3d 5014  .............=P.
	0x0030:  0000 f338 0000 0000 0000 0000            ...8........
20:46:21.888277 IP (tos 0x0, ttl  43, id 42809, offset 0, flags [none], proto 6, length: 44) flynn.54256 > dillinger.6145: S [tcp sum ok] 278379580:278379580(0) win 4096 <mss 1460>
	0x0000:  0004 23ae cb68 000e 0c66 83a8 0800 4500  ..#..h...f....E.
	0x0010:  002c a739 0000 2b06 d28b 0a01 0104 0a01  .,.9..+.........
	0x0020:  0102 d3f0 1801 1097 bc3c 0000 0000 6002  .........<....`.
	0x0030:  1000 b959 0000 0204 05b4                 ...Y......
20:46:21.888395 IP (tos 0x0, ttl  45, id 32646, offset 0, flags [none], proto 6, length: 44) flynn.54256 > dillinger.639: S [tcp sum ok] 278379580:278379580(0) win 2048 <mss 1460>
	0x0000:  0004 23ae cb68 000e 0c66 83a8 0800 4500  ..#..h...f....E.
	0x0010:  002c 7f86 0000 2d06 f83e 0a01 0104 0a01  .,....-..>......
	0x0020:  0102 d3f0 027f 1097 bc3c 0000 0000 6002  .........<....`.
	0x0030:  0800 d6db 0000 0204 05b4                 ..........
20:46:21.888455 IP (tos 0x0, ttl  41, id 33207, offset 0, flags [none], proto 6, length: 44) flynn.54256 > dillinger.1006: S [tcp sum ok] 278379580:278379580(0) win 2048 <mss 1460>
	0x0000:  0004 23ae cb68 000e 0c66 83a8 0800 4500  ..#..h...f....E.
	0x0010:  002c 81b7 0000 2906 fa0d 0a01 0104 0a01  .,....).........
	0x0020:  0102 d3f0 03ee 1097 bc3c 0000 0000 6002  .........<....`.
	0x0030:  0800 d56c 0000 0204 05b4                 ...l......
20:46:21.888517 IP (tos 0x0, ttl  64, id 3365, offset 0, flags [DF], proto 6, length: 40) dillinger.3372 > flynn.54256: R [tcp sum ok] 0:0(0) ack 278379581 win 0
	0x0000:  000e 0c66 83a8 0004 23ae cb68 0800 4500  ...f....#..h..E.
	0x0010:  0028 0d25 4000 4006 17a4 0a01 0102 0a01  .(.%@.@.........
	0x0020:  0104 0d2c d3f0 0000 0000 1097 bc3d 5014  ...,.........=P.
	0x0030:  0000 ebd7 0000 0000 0000 0000            ............
20:46:21.888522 IP (tos 0x0, ttl  64, id 3366, offset 0, flags [DF], proto 6, length: 40) dillinger.6145 > flynn.54256: R [tcp sum ok] 0:0(0) ack 278379581 win 0
	0x0000:  000e 0c66 83a8 0004 23ae cb68 0800 4500  ...f....#..h..E.
	0x0010:  0028 0d26 4000 4006 17a3 0a01 0102 0a01  .(.&@.@.........
	0x0020:  0104 1801 d3f0 0000 0000 1097 bc3d 5014  .............=P.
	0x0030:  0000 e102 0000 0000 0000 0000            ............
20:46:21.888529 IP (tos 0x0, ttl  45, id 34004, offset 0, flags [none], proto 6, length: 44) flynn.54256 > dillinger.1497: S [tcp sum ok] 278379580:278379580(0) win 2048 <mss 1460>
	0x0000:  0004 23ae cb68 000e 0c66 83a8 0800 4500  ..#..h...f....E.
	0x0010:  002c 84d4 0000 2d06 f2f0 0a01 0104 0a01  .,....-.........
	0x0020:  0102 d3f0 05d9 1097 bc3c 0000 0000 6002  .........<....`.
	0x0030:  0800 d381 0000 0204 05b4                 ..........
20:46:21.888646 IP (tos 0x0, ttl  57, id 6178, offset 0, flags [none], proto 6, length: 44) flynn.54256 > dillinger.812: S [tcp sum ok] 278379580:278379580(0) win 2048 <mss 1460>
	0x0000:  0004 23ae cb68 000e 0c66 83a8 0800 4500  ..#..h...f....E.
	0x0010:  002c 1822 0000 3906 53a3 0a01 0104 0a01  .,."..9.S.......
	0x0020:  0102 d3f0 032c 1097 bc3c 0000 0000 6002  .....,...<....`.
	0x0030:  0800 d62e 0000 0204 05b4                 ..........
20:46:21.888706 IP (tos 0x0, ttl  50, id 32003, offset 0, flags [none], proto 6, length: 44) flynn.54256 > dillinger.msp: S [tcp sum ok] 278379580:278379580(0) win 3072 <mss 1460>
	0x0000:  0004 23ae cb68 000e 0c66 83a8 0800 4500  ..#..h...f....E.
	0x0010:  002c 7d03 0000 3206 f5c1 0a01 0104 0a01  .,}...2.........
	0x0020:  0102 d3f0 0012 1097 bc3c 0000 0000 6002  .........<....`.
	0x0030:  0c00 d548 0000 0204 05b4                 ...H......
20:46:21.888766 IP (tos 0x0, ttl  64, id 3367, offset 0, flags [DF], proto 6, length: 40) dillinger.639 > flynn.54256: R [tcp sum ok] 0:0(0) ack 278379581 win 0
	0x0000:  000e 0c66 83a8 0004 23ae cb68 0800 4500  ...f....#..h..E.
	0x0010:  0028 0d27 4000 4006 17a2 0a01 0102 0a01  .(.'@.@.........
	0x0020:  0104 027f d3f0 0000 0000 1097 bc3d 5014  .............=P.
	0x0030:  0000 f684 0000 0000 0000 0000            ............
20:46:21.888771 IP (tos 0x0, ttl  64, id 3368, offset 0, flags [DF], proto 6, length: 40) dillinger.1006 > flynn.54256: R [tcp sum ok] 0:0(0) ack 278379581 win 0
	0x0000:  000e 0c66 83a8 0004 23ae cb68 0800 4500  ...f....#..h..E.
	0x0010:  0028 0d28 4000 4006 17a1 0a01 0102 0a01  .(.(@.@.........
	0x0020:  0104 03ee d3f0 0000 0000 1097 bc3d 5014  .............=P.
	0x0030:  0000 f515 0000 0000 0000 0000            ............
20:46:21.888774 IP (tos 0x0, ttl  64, id 3369, offset 0, flags [DF], proto 6, length: 40) dillinger.1497 > flynn.54256: R [tcp sum ok] 0:0(0) ack 278379581 win 0
	0x0000:  000e 0c66 83a8 0004 23ae cb68 0800 4500  ...f....#..h..E.
	0x0010:  0028 0d29 4000 4006 17a0 0a01 0102 0a01  .(.)@.@.........
	0x0020:  0104 05d9 d3f0 0000 0000 1097 bc3d 5014  .............=P.
	0x0030:  0000 f32a 0000 0000 0000 0000            ...*........
20:46:21.888782 IP (tos 0x0, ttl  51, id 13662, offset 0, flags [none], proto 6, length: 44) flynn.54256 > dillinger.1764: S [tcp sum ok] 278379580:278379580(0) win 4096 <mss 1460>
	0x0000:  0004 23ae cb68 000e 0c66 83a8 0800 4500  ..#..h...f....E.
	0x0010:  002c 355e 0000 3306 3c67 0a01 0104 0a01  .,5^..3.<g......
	0x0020:  0102 d3f0 06e4 1097 bc3c 0000 0000 6002  .........<....`.
	0x0030:  1000 ca76 0000 0204 05b4                 ...v......
20:46:21.888927 IP (tos 0x0, ttl  55, id 27518, offset 0, flags [none], proto 6, length: 44) flynn.54256 > dillinger.1441: S [tcp sum ok] 278379580:278379580(0) win 4096 <mss 1460>
	0x0000:  0004 23ae cb68 000e 0c66 83a8 0800 4500  ..#..h...f....E.
	0x0010:  002c 6b7e 0000 3706 0247 0a01 0104 0a01  .,k~..7..G......
	0x0020:  0102 d3f0 05a1 1097 bc3c 0000 0000 6002  .........<....`.
	0x0030:  1000 cbb9 0000 0204 05b4                 ..........
20:46:21.888994 IP (tos 0x0, ttl  45, id 34797, offset 0, flags [none], proto 6, length: 44) flynn.54256 > dillinger.1535: S [tcp sum ok] 278379580:278379580(0) win 2048 <mss 1460>
	0x0000:  0004 23ae cb68 000e 0c66 83a8 0800 4500  ..#..h...f....E.
	0x0010:  002c 87ed 0000 2d06 efd7 0a01 0104 0a01  .,....-.........
	0x0020:  0102 d3f0 05ff 1097 bc3c 0000 0000 6002  .........<....`.
	0x0030:  0800 d35b 0000 0204 05b4                 ...[......
20:46:21.889017 IP (tos 0x0, ttl  64, id 3370, offset 0, flags [DF], proto 6, length: 40) dillinger.812 > flynn.54256: R [tcp sum ok] 0:0(0) ack 278379581 win 0
	0x0000:  000e 0c66 83a8 0004 23ae cb68 0800 4500  ...f....#..h..E.
	0x0010:  0028 0d2a 4000 4006 179f 0a01 0102 0a01  .(.*@.@.........
	0x0020:  0104 032c d3f0 0000 0000 1097 bc3d 5014  ...,.........=P.
	0x0030:  0000 f5d7 0000 0000 0000 0000            ............
20:46:21.889024 IP (tos 0x0, ttl  64, id 3371, offset 0, flags [DF], proto 6, length: 40) dillinger.msp > flynn.54256: R [tcp sum ok] 0:0(0) ack 278379581 win 0
	0x0000:  000e 0c66 83a8 0004 23ae cb68 0800 4500  ...f....#..h..E.
	0x0010:  0028 0d2b 4000 4006 179e 0a01 0102 0a01  .(.+@.@.........
	0x0020:  0104 0012 d3f0 0000 0000 1097 bc3d 5014  .............=P.
	0x0030:  0000 f8f1 0000 0000 0000 0000            ............
20:46:21.889028 IP (tos 0x0, ttl  51, id 35072, offset 0, flags [none], proto 6, length: 44) flynn.54256 > dillinger.1511: S [tcp sum ok] 278379580:278379580(0) win 4096 <mss 1460>
	0x0000:  0004 23ae cb68 000e 0c66 83a8 0800 4500  ..#..h...f....E.
	0x0010:  002c 8900 0000 3306 e8c4 0a01 0104 0a01  .,....3.........
	0x0020:  0102 d3f0 05e7 1097 bc3c 0000 0000 6002  .........<....`.
	0x0030:  1000 cb73 0000 0204 05b4                 ...s......
20:46:21.889029 IP (tos 0x0, ttl  64, id 3372, offset 0, flags [DF], proto 6, length: 40) dillinger.1764 > flynn.54256: R [tcp sum ok] 0:0(0) ack 278379581 win 0
	0x0000:  000e 0c66 83a8 0004 23ae cb68 0800 4500  ...f....#..h..E.
	0x0010:  0028 0d2c 4000 4006 179d 0a01 0102 0a01  .(.,@.@.........
	0x0020:  0104 06e4 d3f0 0000 0000 1097 bc3d 5014  .............=P.
	0x0030:  0000 f21f 0000 0000 0000 0000            ............
20:46:21.889085 IP (tos 0x0, ttl  39, id 37431, offset 0, flags [none], proto 6, length: 44) flynn.54256 > dillinger.959: S [tcp sum ok] 278379580:278379580(0) win 4096 <mss 1460>
	0x0000:  0004 23ae cb68 000e 0c66 83a8 0800 4500  ..#..h...f....E.
	0x0010:  002c 9237 0000 2706 eb8d 0a01 0104 0a01  .,.7..'.........
	0x0020:  0102 d3f0 03bf 1097 bc3c 0000 0000 6002  .........<....`.
	0x0030:  1000 cd9b 0000 0204 05b4                 ..........
20:46:21.889114 IP (tos 0x0, ttl  49, id 22839, offset 0, flags [none], proto 6, length: 44) flynn.54256 > dillinger.462: S [tcp sum ok] 278379580:278379580(0) win 2048 <mss 1460>
	0x0000:  0004 23ae cb68 000e 0c66 83a8 0800 4500  ..#..h...f....E.
	0x0010:  002c 5937 0000 3106 1a8e 0a01 0104 0a01  .,Y7..1.........
	0x0020:  0102 d3f0 01ce 1097 bc3c 0000 0000 6002  .........<....`.
	0x0030:  0800 d78c 0000 0204 05b4                 ..........
20:46:21.889267 IP (tos 0x0, ttl  64, id 3373, offset 0, flags [DF], proto 6, length: 40) dillinger.1441 > flynn.54256: R [tcp sum ok] 0:0(0) ack 278379581 win 0
	0x0000:  000e 0c66 83a8 0004 23ae cb68 0800 4500  ...f....#..h..E.
	0x0010:  0028 0d2d 4000 4006 179c 0a01 0102 0a01  .(.-@.@.........
	0x0020:  0104 05a1 d3f0 0000 0000 1097 bc3d 5014  .............=P.
	0x0030:  0000 f362 0000 0000 0000 0000            ...b........
20:46:21.889273 IP (tos 0x0, ttl  64, id 3374, offset 0, flags [DF], proto 6, length: 40) dillinger.1535 > flynn.54256: R [tcp sum ok] 0:0(0) ack 278379581 win 0
	0x0000:  000e 0c66 83a8 0004 23ae cb68 0800 4500  ...f....#..h..E.
	0x0010:  0028 0d2e 4000 4006 179b 0a01 0102 0a01  .(..@.@.........
	0x0020:  0104 05ff d3f0 0000 0000 1097 bc3d 5014  .............=P.
	0x0030:  0000 f304 0000 0000 0000 0000            ............
20:46:21.889515 IP (tos 0x0, ttl  64, id 3375, offset 0, flags [DF], proto 6, length: 40) dillinger.1511 > flynn.54256: R [tcp sum ok] 0:0(0) ack 278379581 win 0
	0x0000:  000e 0c66 83a8 0004 23ae cb68 0800 4500  ...f....#..h..E.
	0x0010:  0028 0d2f 4000 4006 179a 0a01 0102 0a01  .(./@.@.........
	0x0020:  0104 05e7 d3f0 0000 0000 1097 bc3d 5014  .............=P.
	0x0030:  0000 f31c 0000 0000 0000 0000            ............
20:46:21.889520 IP (tos 0x0, ttl  64, id 3376, offset 0, flags [DF], proto 6, length: 40) dillinger.959 > flynn.54256: R [tcp sum ok] 0:0(0) ack 278379581 win 0
	0x0000:  000e 0c66 83a8 0004 23ae cb68 0800 4500  ...f....#..h..E.
	0x0010:  0028 0d30 4000 4006 1799 0a01 0102 0a01  .(.0@.@.........
	0x0020:  0104 03bf d3f0 0000 0000 1097 bc3d 5014  .............=P.
	0x0030:  0000 f544 0000 0000 0000 0000            ...D........
20:46:21.889525 IP (tos 0x0, ttl  64, id 3377, offset 0, flags [DF], proto 6, length: 40) dillinger.462 > flynn.54256: R [tcp sum ok] 0:0(0) ack 278379581 win 0
	0x0000:  000e 0c66 83a8 0004 23ae cb68 0800 4500  ...f....#..h..E.
	0x0010:  0028 0d31 4000 4006 1798 0a01 0102 0a01  .(.1@.@.........
	0x0020:  0104 01ce d3f0 0000 0000 1097 bc3d 5014  .............=P.
	0x0030:  0000 f735 0000 0000 0000 0000            ...5........
20:46:21.889649 IP (tos 0x0, ttl  39, id 3674, offset 0, flags [none], proto 6, length: 44) flynn.54256 > dillinger.670: S [tcp sum ok] 278379580:278379580(0) win 4096 <mss 1460>
	0x0000:  0004 23ae cb68 000e 0c66 83a8 0800 4500  ..#..h...f....E.
	0x0010:  002c 0e5a 0000 2706 6f6b 0a01 0104 0a01  .,.Z..'.ok......
	0x0020:  0102 d3f0 029e 1097 bc3c 0000 0000 6002  .........<....`.
	0x0030:  1000 cebc 0000 0204 05b4                 ..........
20:46:21.889681 IP (tos 0x0, ttl  41, id 44414, offset 0, flags [none], proto 6, length: 44) flynn.54256 > dillinger.afs3-fileserver: S [tcp sum ok] 278379580:278379580(0) win 2048 <mss 1460>
	0x0000:  0004 23ae cb68 000e 0c66 83a8 0800 4500  ..#..h...f....E.
	0x0010:  002c ad7e 0000 2906 ce46 0a01 0104 0a01  .,.~..)..F......
	0x0020:  0102 d3f0 1b58 1097 bc3c 0000 0000 6002  .....X...<....`.
	0x0030:  0800 be02 0000 0204 05b4                 ..........
20:46:21.889710 IP (tos 0x0, ttl  47, id 8350, offset 0, flags [none], proto 6, length: 44) flynn.54256 > dillinger.668: S [tcp sum ok] 278379580:278379580(0) win 4096 <mss 1460>
	0x0000:  0004 23ae cb68 000e 0c66 83a8 0800 4500  ..#..h...f....E.
	0x0010:  002c 209e 0000 2f06 5527 0a01 0104 0a01  .,..../.U'......
	0x0020:  0102 d3f0 029c 1097 bc3c 0000 0000 6002  .........<....`.
	0x0030:  1000 cebe 0000 0204 05b4                 ..........
20:46:21.889740 IP (tos 0x0, ttl  47, id 12350, offset 0, flags [none], proto 6, length: 44) flynn.54256 > dillinger.socks: S [tcp sum ok] 278379580:278379580(0) win 4096 <mss 1460>
	0x0000:  0004 23ae cb68 000e 0c66 83a8 0800 4500  ..#..h...f....E.
	0x0010:  002c 303e 0000 2f06 4587 0a01 0104 0a01  .,0>../.E.......
	0x0020:  0102 d3f0 0438 1097 bc3c 0000 0000 6002  .....8...<....`.
	0x0030:  1000 cd22 0000 0204 05b4                 ..."......
20:46:21.889768 IP (tos 0x0, ttl  59, id 38112, offset 0, flags [none], proto 6, length: 44) flynn.54256 > dillinger.586: S [tcp sum ok] 278379580:278379580(0) win 4096 <mss 1460>
	0x0000:  0004 23ae cb68 000e 0c66 83a8 0800 4500  ..#..h...f....E.
	0x0010:  002c 94e0 0000 3b06 d4e4 0a01 0104 0a01  .,....;.........
	0x0020:  0102 d3f0 024a 1097 bc3c 0000 0000 6002  .....J...<....`.
	0x0030:  1000 cf10 0000 0204 05b4                 ..........
20:46:21.889798 IP (tos 0x0, ttl  51, id 49454, offset 0, flags [none], proto 6, length: 44) flynn.54256 > dillinger.82: S [tcp sum ok] 278379580:278379580(0) win 4096 <mss 1460>
	0x0000:  0004 23ae cb68 000e 0c66 83a8 0800 4500  ..#..h...f....E.
	0x0010:  002c c12e 0000 3306 b096 0a01 0104 0a01  .,....3.........
	0x0020:  0102 d3f0 0052 1097 bc3c 0000 0000 6002  .....R...<....`.
	0x0030:  1000 d108 0000 0204 05b4                 ..........
20:46:21.889828 IP (tos 0x0, ttl  46, id 59749, offset 0, flags [none], proto 6, length: 44) flynn.54256 > dillinger.linuxconf: S [tcp sum ok] 278379580:278379580(0) win 3072 <mss 1460>
	0x0000:  0004 23ae cb68 000e 0c66 83a8 0800 4500  ..#..h...f....E.
	0x0010:  002c e965 0000 2e06 8d5f 0a01 0104 0a01  .,.e....._......
	0x0020:  0102 d3f0 0062 1097 bc3c 0000 0000 6002  .....b...<....`.
	0x0030:  0c00 d4f8 0000 0204 05b4                 ..........
20:46:21.889857 IP (tos 0x0, ttl  58, id 18132, offset 0, flags [none], proto 6, length: 44) flynn.54256 > dillinger.1354: S [tcp sum ok] 278379580:278379580(0) win 3072 <mss 1460>
	0x0000:  0004 23ae cb68 000e 0c66 83a8 0800 4500  ..#..h...f....E.
	0x0010:  002c 46d4 0000 3a06 23f1 0a01 0104 0a01  .,F...:.#.......
	0x0020:  0102 d3f0 054a 1097 bc3c 0000 0000 6002  .....J...<....`.
	0x0030:  0c00 d010 0000 0204 05b4                 ..........
20:46:21.889887 IP (tos 0x0, ttl  37, id 41633, offset 0, flags [none], proto 6, length: 44) flynn.54256 > dillinger.809: S [tcp sum ok] 278379580:278379580(0) win 2048 <mss 1460>
	0x0000:  0004 23ae cb68 000e 0c66 83a8 0800 4500  ..#..h...f....E.
	0x0010:  002c a2a1 0000 2506 dd23 0a01 0104 0a01  .,....%..#......
	0x0020:  0102 d3f0 0329 1097 bc3c 0000 0000 6002  .....)...<....`.
	0x0030:  0800 d631 0000 0204 05b4                 ...1......
20:46:21.889916 IP (tos 0x0, ttl  45, id 4036, offset 0, flags [none], proto 6, length: 44) flynn.54256 > dillinger.415: S [tcp sum ok] 278379580:278379580(0) win 2048 <mss 1460>
	0x0000:  0004 23ae cb68 000e 0c66 83a8 0800 4500  ..#..h...f....E.
	0x0010:  002c 0fc4 0000 2d06 6801 0a01 0104 0a01  .,....-.h.......
	0x0020:  0102 d3f0 019f 1097 bc3c 0000 0000 6002  .........<....`.
	0x0030:  0800 d7bb 0000 0204 05b4                 ..........
20:46:21.889947 IP (tos 0x0, ttl  40, id 64429, offset 0, flags [none], proto 6, length: 44) flynn.54256 > dillinger.support: S [tcp sum ok] 278379580:278379580(0) win 1024 <mss 1460>
	0x0000:  0004 23ae cb68 000e 0c66 83a8 0800 4500  ..#..h...f....E.
	0x0010:  002c fbad 0000 2806 8117 0a01 0104 0a01  .,....(.........
	0x0020:  0102 d3f0 05f9 1097 bc3c 0000 0000 6002  .........<....`.
	0x0030:  0400 d761 0000 0204 05b4                 ...a......
20:46:21.889981 IP (tos 0x0, ttl  54, id 20397, offset 0, flags [none], proto 6, length: 44) flynn.54256 > dillinger.600: S [tcp sum ok] 278379580:278379580(0) win 3072 <mss 1460>
	0x0000:  0004 23ae cb68 000e 0c66 83a8 0800 4500  ..#..h...f....E.
	0x0010:  002c 4fad 0000 3606 1f18 0a01 0104 0a01  .,O...6.........
	0x0020:  0102 d3f0 0258 1097 bc3c 0000 0000 6002  .....X...<....`.
	0x0030:  0c00 d302 0000 0204 05b4                 ..........
20:46:21.890010 IP (tos 0x0, ttl  58, id 52200, offset 0, flags [none], proto 6, length: 44) flynn.54256 > dillinger.907: S [tcp sum ok] 278379580:278379580(0) win 3072 <mss 1460>
	0x0000:  0004 23ae cb68 000e 0c66 83a8 0800 4500  ..#..h...f....E.
	0x0010:  002c cbe8 0000 3a06 9edc 0a01 0104 0a01  .,....:.........
	0x0020:  0102 d3f0 038b 1097 bc3c 0000 0000 6002  .........<....`.
	0x0030:  0c00 d1cf 0000 0204 05b4                 ..........
20:46:21.890020 IP (tos 0x0, ttl  64, id 3378, offset 0, flags [DF], proto 6, length: 40) dillinger.670 > flynn.54256: R [tcp sum ok] 0:0(0) ack 278379581 win 0
	0x0000:  000e 0c66 83a8 0004 23ae cb68 0800 4500  ...f....#..h..E.
	0x0010:  0028 0d32 4000 4006 1797 0a01 0102 0a01  .(.2@.@.........
	0x0020:  0104 029e d3f0 0000 0000 1097 bc3d 5014  .............=P.
	0x0030:  0000 f665 0000 0000 0000 0000            ...e........
20:46:21.890026 IP (tos 0x0, ttl  64, id 3379, offset 0, flags [DF], proto 6, length: 40) dillinger.afs3-fileserver > flynn.54256: R [tcp sum ok] 0:0(0) ack 278379581 win 0
	0x0000:  000e 0c66 83a8 0004 23ae cb68 0800 4500  ...f....#..h..E.
	0x0010:  0028 0d33 4000 4006 1796 0a01 0102 0a01  .(.3@.@.........
	0x0020:  0104 1b58 d3f0 0000 0000 1097 bc3d 5014  ...X.........=P.
	0x0030:  0000 ddab 0000 0000 0000 0000            ............
20:46:21.890032 IP (tos 0x0, ttl  64, id 3380, offset 0, flags [DF], proto 6, length: 40) dillinger.668 > flynn.54256: R [tcp sum ok] 0:0(0) ack 278379581 win 0
	0x0000:  000e 0c66 83a8 0004 23ae cb68 0800 4500  ...f....#..h..E.
	0x0010:  0028 0d34 4000 4006 1795 0a01 0102 0a01  .(.4@.@.........
	0x0020:  0104 029c d3f0 0000 0000 1097 bc3d 5014  .............=P.
	0x0030:  0000 f667 0000 0000 0000 0000            ...g........
20:46:21.890036 IP (tos 0x0, ttl  64, id 3381, offset 0, flags [DF], proto 6, length: 40) dillinger.socks > flynn.54256: R [tcp sum ok] 0:0(0) ack 278379581 win 0
	0x0000:  000e 0c66 83a8 0004 23ae cb68 0800 4500  ...f....#..h..E.
	0x0010:  0028 0d35 4000 4006 1794 0a01 0102 0a01  .(.5@.@.........
	0x0020:  0104 0438 d3f0 0000 0000 1097 bc3d 5014  ...8.........=P.
	0x0030:  0000 f4cb 0000 0000 0000 0000            ............
20:46:21.890040 IP (tos 0x0, ttl  51, id 28971, offset 0, flags [none], proto 6, length: 44) flynn.54256 > dillinger.5010: S [tcp sum ok] 278379580:278379580(0) win 4096 <mss 1460>
	0x0000:  0004 23ae cb68 000e 0c66 83a8 0800 4500  ..#..h...f....E.
	0x0010:  002c 712b 0000 3306 009a 0a01 0104 0a01  .,q+..3.........
	0x0020:  0102 d3f0 1392 1097 bc3c 0000 0000 6002  .........<....`.
	0x0030:  1000 bdc8 0000 0204 05b4                 ..........
20:46:21.890041 IP (tos 0x0, ttl  64, id 3382, offset 0, flags [DF], proto 6, length: 40) dillinger.586 > flynn.54256: R [tcp sum ok] 0:0(0) ack 278379581 win 0
	0x0000:  000e 0c66 83a8 0004 23ae cb68 0800 4500  ...f....#..h..E.
	0x0010:  0028 0d36 4000 4006 1793 0a01 0102 0a01  .(.6@.@.........
	0x0020:  0104 024a d3f0 0000 0000 1097 bc3d 5014  ...J.........=P.
	0x0030:  0000 f6b9 0000 0000 0000 0000            ............
20:46:21.890046 IP (tos 0x0, ttl  64, id 3383, offset 0, flags [DF], proto 6, length: 40) dillinger.82 > flynn.54256: R [tcp sum ok] 0:0(0) ack 278379581 win 0
	0x0000:  000e 0c66 83a8 0004 23ae cb68 0800 4500  ...f....#..h..E.
	0x0010:  0028 0d37 4000 4006 1792 0a01 0102 0a01  .(.7@.@.........
	0x0020:  0104 0052 d3f0 0000 0000 1097 bc3d 5014  ...R.........=P.
	0x0030:  0000 f8b1 0000 0000 0000 0000            ............
20:46:21.890068 IP (tos 0x0, ttl  54, id 52716, offset 0, flags [none], proto 6, length: 44) flynn.54256 > dillinger.1440: S [tcp sum ok] 278379580:278379580(0) win 3072 <mss 1460>
	0x0000:  0004 23ae cb68 000e 0c66 83a8 0800 4500  ..#..h...f....E.
	0x0010:  002c cdec 0000 3606 a0d8 0a01 0104 0a01  .,....6.........
	0x0020:  0102 d3f0 05a0 1097 bc3c 0000 0000 6002  .........<....`.
	0x0030:  0c00 cfba 0000 0204 05b4                 ..........
20:46:21.890102 IP (tos 0x0, ttl  40, id 54380, offset 0, flags [none], proto 6, length: 44) flynn.54256 > dillinger.996: S [tcp sum ok] 278379580:278379580(0) win 1024 <mss 1460>
	0x0000:  0004 23ae cb68 000e 0c66 83a8 0800 4500  ..#..h...f....E.
	0x0010:  002c d46c 0000 2806 a858 0a01 0104 0a01  .,.l..(..X......
	0x0020:  0102 d3f0 03e4 1097 bc3c 0000 0000 6002  .........<....`.
	0x0030:  0400 d976 0000 0204 05b4                 ...v......
20:46:21.890131 IP (tos 0x0, ttl  51, id 43196, offset 0, flags [none], proto 6, length: 44) flynn.54256 > dillinger.1465: S [tcp sum ok] 278379580:278379580(0) win 4096 <mss 1460>
	0x0000:  0004 23ae cb68 000e 0c66 83a8 0800 4500  ..#..h...f....E.
	0x0010:  002c a8bc 0000 3306 c908 0a01 0104 0a01  .,....3.........
	0x0020:  0102 d3f0 05b9 1097 bc3c 0000 0000 6002  .........<....`.
	0x0030:  1000 cba1 0000 0204 05b4                 ..........
20:46:21.890161 IP (tos 0x0, ttl  58, id 56660, offset 0, flags [none], proto 6, length: 44) flynn.54256 > dillinger.amidxtape: S [tcp sum ok] 278379580:278379580(0) win 3072 <mss 1460>
	0x0000:  0004 23ae cb68 000e 0c66 83a8 0800 4500  ..#..h...f....E.
	0x0010:  002c dd54 0000 3a06 8d70 0a01 0104 0a01  .,.T..:..p......
	0x0020:  0102 d3f0 2763 1097 bc3c 0000 0000 6002  ....'c...<....`.
	0x0030:  0c00 adf7 0000 0204 05b4                 ..........
20:46:21.890191 IP (tos 0x0, ttl  47, id 40753, offset 0, flags [none], proto 6, length: 44) flynn.54256 > dillinger.745: S [tcp sum ok] 278379580:278379580(0) win 4096 <mss 1460>
	0x0000:  0004 23ae cb68 000e 0c66 83a8 0800 4500  ..#..h...f....E.
	0x0010:  002c 9f31 0000 2f06 d693 0a01 0104 0a01  .,.1../.........
	0x0020:  0102 d3f0 02e9 1097 bc3c 0000 0000 6002  .........<....`.
	0x0030:  1000 ce71 0000 0204 05b4                 ...q......
20:46:21.890220 IP (tos 0x0, ttl  55, id 55898, offset 0, flags [none], proto 6, length: 44) flynn.54256 > dillinger.296: S [tcp sum ok] 278379580:278379580(0) win 4096 <mss 1460>
	0x0000:  0004 23ae cb68 000e 0c66 83a8 0800 4500  ..#..h...f....E.
	0x0010:  002c da5a 0000 3706 936a 0a01 0104 0a01  .,.Z..7..j......
	0x0020:  0102 d3f0 0128 1097 bc3c 0000 0000 6002  .....(...<....`.
	0x0030:  1000 d032 0000 0204 05b4                 ...2......
20:46:21.890249 IP (tos 0x0, ttl  51, id 46659, offset 0, flags [none], proto 6, length: 44) flynn.54256 > dillinger.3986: S [tcp sum ok] 278379580:278379580(0) win 4096 <mss 1460>
	0x0000:  0004 23ae cb68 000e 0c66 83a8 0800 4500  ..#..h...f....E.
	0x0010:  002c b643 0000 3306 bb81 0a01 0104 0a01  .,.C..3.........
	0x0020:  0102 d3f0 0f92 1097 bc3c 0000 0000 6002  .........<....`.
	0x0030:  1000 c1c8 0000 0204 05b4                 ..........
20:46:21.890267 IP (tos 0x0, ttl  64, id 3384, offset 0, flags [DF], proto 6, length: 40) dillinger.linuxconf > flynn.54256: R [tcp sum ok] 0:0(0) ack 278379581 win 0
	0x0000:  000e 0c66 83a8 0004 23ae cb68 0800 4500  ...f....#..h..E.
	0x0010:  0028 0d38 4000 4006 1791 0a01 0102 0a01  .(.8@.@.........
	0x0020:  0104 0062 d3f0 0000 0000 1097 bc3d 5014  ...b.........=P.
	0x0030:  0000 f8a1 0000 0000 0000 0000            ............
20:46:21.890273 IP (tos 0x0, ttl  64, id 3385, offset 0, flags [DF], proto 6, length: 40) dillinger.1354 > flynn.54256: R [tcp sum ok] 0:0(0) ack 278379581 win 0
	0x0000:  000e 0c66 83a8 0004 23ae cb68 0800 4500  ...f....#..h..E.
	0x0010:  0028 0d39 4000 4006 1790 0a01 0102 0a01  .(.9@.@.........
	0x0020:  0104 054a d3f0 0000 0000 1097 bc3d 5014  ...J.........=P.
	0x0030:  0000 f3b9 0000 0000 0000 0000            ............
20:46:21.890278 IP (tos 0x0, ttl  64, id 3386, offset 0, flags [DF], proto 6, length: 40) dillinger.809 > flynn.54256: R [tcp sum ok] 0:0(0) ack 278379581 win 0
	0x0000:  000e 0c66 83a8 0004 23ae cb68 0800 4500  ...f....#..h..E.
	0x0010:  0028 0d3a 4000 4006 178f 0a01 0102 0a01  .(.:@.@.........
	0x0020:  0104 0329 d3f0 0000 0000 1097 bc3d 5014  ...).........=P.
	0x0030:  0000 f5da 0000 0000 0000 0000            ............
20:46:21.890278 IP (tos 0x0, ttl  37, id 8076, offset 0, flags [none], proto 6, length: 44) flynn.54256 > dillinger.csnet-ns: S [tcp sum ok] 278379580:278379580(0) win 2048 <mss 1460>
	0x0000:  0004 23ae cb68 000e 0c66 83a8 0800 4500  ..#..h...f....E.
	0x0010:  002c 1f8c 0000 2506 6039 0a01 0104 0a01  .,....%.`9......
	0x0020:  0102 d3f0 0069 1097 bc3c 0000 0000 6002  .....i...<....`.
	0x0030:  0800 d8f1 0000 0204 05b4                 ..........
20:46:21.890284 IP (tos 0x0, ttl  64, id 3387, offset 0, flags [DF], proto 6, length: 40) dillinger.415 > flynn.54256: R [tcp sum ok] 0:0(0) ack 278379581 win 0
	0x0000:  000e 0c66 83a8 0004 23ae cb68 0800 4500  ...f....#..h..E.
	0x0010:  0028 0d3b 4000 4006 178e 0a01 0102 0a01  .(.;@.@.........
	0x0020:  0104 019f d3f0 0000 0000 1097 bc3d 5014  .............=P.
	0x0030:  0000 f764 0000 0000 0000 0000            ...d........
20:46:21.890289 IP (tos 0x0, ttl  64, id 3388, offset 0, flags [DF], proto 6, length: 40) dillinger.support > flynn.54256: R [tcp sum ok] 0:0(0) ack 278379581 win 0
	0x0000:  000e 0c66 83a8 0004 23ae cb68 0800 4500  ...f....#..h..E.
	0x0010:  0028 0d3c 4000 4006 178d 0a01 0102 0a01  .(.<@.@.........
	0x0020:  0104 05f9 d3f0 0000 0000 1097 bc3d 5014  .............=P.
	0x0030:  0000 f30a 0000 0000 0000 0000            ............
20:46:21.890293 IP (tos 0x0, ttl  64, id 3389, offset 0, flags [DF], proto 6, length: 40) dillinger.600 > flynn.54256: R [tcp sum ok] 0:0(0) ack 278379581 win 0
	0x0000:  000e 0c66 83a8 0004 23ae cb68 0800 4500  ...f....#..h..E.
	0x0010:  0028 0d3d 4000 4006 178c 0a01 0102 0a01  .(.=@.@.........
	0x0020:  0104 0258 d3f0 0000 0000 1097 bc3d 5014  ...X.........=P.
	0x0030:  0000 f6ab 0000 0000 0000 0000            ............
20:46:21.890298 IP (tos 0x0, ttl  64, id 3390, offset 0, flags [DF], proto 6, length: 40) dillinger.907 > flynn.54256: R [tcp sum ok] 0:0(0) ack 278379581 win 0
	0x0000:  000e 0c66 83a8 0004 23ae cb68 0800 4500  ...f....#..h..E.
	0x0010:  0028 0d3e 4000 4006 178b 0a01 0102 0a01  .(.>@.@.........
	0x0020:  0104 038b d3f0 0000 0000 1097 bc3d 5014  .............=P.
	0x0030:  0000 f578 0000 0000 0000 0000            ...x........
20:46:21.890303 IP (tos 0x0, ttl  64, id 3391, offset 0, flags [DF], proto 6, length: 40) dillinger.5010 > flynn.54256: R [tcp sum ok] 0:0(0) ack 278379581 win 0
	0x0000:  000e 0c66 83a8 0004 23ae cb68 0800 4500  ...f....#..h..E.
	0x0010:  0028 0d3f 4000 4006 178a 0a01 0102 0a01  .(.?@.@.........
	0x0020:  0104 1392 d3f0 0000 0000 1097 bc3d 5014  .............=P.
	0x0030:  0000 e571 0000 0000 0000 0000            ...q........
20:46:21.890307 IP (tos 0x0, ttl  52, id 40520, offset 0, flags [none], proto 6, length: 44) flynn.54256 > dillinger.126: S [tcp sum ok] 278379580:278379580(0) win 1024 <mss 1460>
	0x0000:  0004 23ae cb68 000e 0c66 83a8 0800 4500  ..#..h...f....E.
	0x0010:  002c 9e48 0000 3406 d27c 0a01 0104 0a01  .,.H..4..|......
	0x0020:  0102 d3f0 007e 1097 bc3c 0000 0000 6002  .....~...<....`.
	0x0030:  0400 dcdc 0000 0204 05b4                 ..........
20:46:21.890338 IP (tos 0x0, ttl  47, id 5830, offset 0, flags [none], proto 6, length: 44) flynn.54256 > dillinger.1420: S [tcp sum ok] 278379580:278379580(0) win 4096 <mss 1460>
	0x0000:  0004 23ae cb68 000e 0c66 83a8 0800 4500  ..#..h...f....E.
	0x0010:  002c 16c6 0000 2f06 5eff 0a01 0104 0a01  .,..../.^.......
	0x0020:  0102 d3f0 058c 1097 bc3c 0000 0000 6002  .........<....`.
	0x0030:  1000 cbce 0000 0204 05b4                 ..........
20:46:21.890373 IP (tos 0x0, ttl  49, id 36697, offset 0, flags [none], proto 6, length: 44) flynn.54256 > dillinger.8082: S [tcp sum ok] 278379580:278379580(0) win 2048 <mss 1460>
	0x0000:  0004 23ae cb68 000e 0c66 83a8 0800 4500  ..#..h...f....E.
	0x0010:  002c 8f59 0000 3106 e46b 0a01 0104 0a01  .,.Y..1..k......
	0x0020:  0102 d3f0 1f92 1097 bc3c 0000 0000 6002  .........<....`.
	0x0030:  0800 b9c8 0000 0204 05b4                 ..........
20:46:21.890402 IP (tos 0x0, ttl  51, id 52993, offset 0, flags [none], proto 6, length: 44) flynn.54256 > dillinger.383: S [tcp sum ok] 278379580:278379580(0) win 4096 <mss 1460>
	0x0000:  0004 23ae cb68 000e 0c66 83a8 0800 4500  ..#..h...f....E.
	0x0010:  002c cf01 0000 3306 a2c3 0a01 0104 0a01  .,....3.........
	0x0020:  0102 d3f0 017f 1097 bc3c 0000 0000 6002  .........<....`.
	0x0030:  1000 cfdb 0000 0204 05b4                 ..........
20:46:21.890431 IP (tos 0x0, ttl  55, id 61378, offset 0, flags [none], proto 6, length: 44) flynn.54256 > dillinger.870: S [tcp sum ok] 278379580:278379580(0) win 4096 <mss 1460>
	0x0000:  0004 23ae cb68 000e 0c66 83a8 0800 4500  ..#..h...f....E.
	0x0010:  002c efc2 0000 3706 7e02 0a01 0104 0a01  .,....7.~.......
	0x0020:  0102 d3f0 0366 1097 bc3c 0000 0000 6002  .....f...<....`.
	0x0030:  1000 cdf4 0000 0204 05b4                 ..........
20:46:21.890460 IP (tos 0x0, ttl  48, id 43663, offset 0, flags [none], proto 6, length: 44) flynn.54256 > dillinger.27004: S [tcp sum ok] 278379580:278379580(0) win 1024 <mss 1460>
	0x0000:  0004 23ae cb68 000e 0c66 83a8 0800 4500  ..#..h...f....E.
	0x0010:  002c aa8f 0000 3006 ca35 0a01 0104 0a01  .,....0..5......
	0x0020:  0102 d3f0 697c 1097 bc3c 0000 0000 6002  ....i|...<....`.
	0x0030:  0400 73de 0000 0204 05b4                 ..s.......
20:46:21.890489 IP (tos 0x0, ttl  37, id 5752, offset 0, flags [none], proto 6, length: 44) flynn.54256 > dillinger.571: S [tcp sum ok] 278379580:278379580(0) win 2048 <mss 1460>
	0x0000:  0004 23ae cb68 000e 0c66 83a8 0800 4500  ..#..h...f....E.
	0x0010:  002c 1678 0000 2506 694d 0a01 0104 0a01  .,.x..%.iM......
	0x0020:  0102 d3f0 023b 1097 bc3c 0000 0000 6002  .....;...<....`.
	0x0030:  0800 d71f 0000 0204 05b4                 ..........
20:46:21.890517 IP (tos 0x0, ttl  64, id 3392, offset 0, flags [DF], proto 6, length: 40) dillinger.1440 > flynn.54256: R [tcp sum ok] 0:0(0) ack 278379581 win 0
	0x0000:  000e 0c66 83a8 0004 23ae cb68 0800 4500  ...f....#..h..E.
	0x0010:  0028 0d40 4000 4006 1789 0a01 0102 0a01  .(.@@.@.........
	0x0020:  0104 05a0 d3f0 0000 0000 1097 bc3d 5014  .............=P.
	0x0030:  0000 f363 0000 0000 0000 0000            ...c........
20:46:21.890518 IP (tos 0x0, ttl  53, id 7813, offset 0, flags [none], proto 6, length: 44) flynn.54256 > dillinger.638: S [tcp sum ok] 278379580:278379580(0) win 2048 <mss 1460>
	0x0000:  0004 23ae cb68 000e 0c66 83a8 0800 4500  ..#..h...f....E.
	0x0010:  002c 1e85 0000 3506 5140 0a01 0104 0a01  .,....5.Q@......
	0x0020:  0102 d3f0 027e 1097 bc3c 0000 0000 6002  .....~...<....`.
	0x0030:  0800 d6dc 0000 0204 05b4                 ..........
20:46:21.890523 IP (tos 0x0, ttl  64, id 3393, offset 0, flags [DF], proto 6, length: 40) dillinger.996 > flynn.54256: R [tcp sum ok] 0:0(0) ack 278379581 win 0
	0x0000:  000e 0c66 83a8 0004 23ae cb68 0800 4500  ...f....#..h..E.
	0x0010:  0028 0d41 4000 4006 1788 0a01 0102 0a01  .(.A@.@.........
	0x0020:  0104 03e4 d3f0 0000 0000 1097 bc3d 5014  .............=P.
	0x0030:  0000 f51f 0000 0000 0000 0000            ............
20:46:21.890527 IP (tos 0x0, ttl  64, id 3394, offset 0, flags [DF], proto 6, length: 40) dillinger.1465 > flynn.54256: R [tcp sum ok] 0:0(0) ack 278379581 win 0
	0x0000:  000e 0c66 83a8 0004 23ae cb68 0800 4500  ...f....#..h..E.
	0x0010:  0028 0d42 4000 4006 1787 0a01 0102 0a01  .(.B@.@.........
	0x0020:  0104 05b9 d3f0 0000 0000 1097 bc3d 5014  .............=P.
	0x0030:  0000 f34a 0000 0000 0000 0000            ...J........
20:46:21.890532 IP (tos 0x0, ttl  64, id 3395, offset 0, flags [DF], proto 6, length: 40) dillinger.amidxtape > flynn.54256: R [tcp sum ok] 0:0(0) ack 278379581 win 0
	0x0000:  000e 0c66 83a8 0004 23ae cb68 0800 4500  ...f....#..h..E.
	0x0010:  0028 0d43 4000 4006 1786 0a01 0102 0a01  .(.C@.@.........
	0x0020:  0104 2763 d3f0 0000 0000 1097 bc3d 5014  ..'c.........=P.
	0x0030:  0000 d1a0 0000 0000 0000 0000            ............
20:46:21.890536 IP (tos 0x0, ttl  64, id 3396, offset 0, flags [DF], proto 6, length: 40) dillinger.745 > flynn.54256: R [tcp sum ok] 0:0(0) ack 278379581 win 0
	0x0000:  000e 0c66 83a8 0004 23ae cb68 0800 4500  ...f....#..h..E.
	0x0010:  0028 0d44 4000 4006 1785 0a01 0102 0a01  .(.D@.@.........
	0x0020:  0104 02e9 d3f0 0000 0000 1097 bc3d 5014  .............=P.
	0x0030:  0000 f61a 0000 0000 0000 0000            ............
20:46:21.890541 IP (tos 0x0, ttl  64, id 3397, offset 0, flags [DF], proto 6, length: 40) dillinger.296 > flynn.54256: R [tcp sum ok] 0:0(0) ack 278379581 win 0
	0x0000:  000e 0c66 83a8 0004 23ae cb68 0800 4500  ...f....#..h..E.
	0x0010:  0028 0d45 4000 4006 1784 0a01 0102 0a01  .(.E@.@.........
	0x0020:  0104 0128 d3f0 0000 0000 1097 bc3d 5014  ...(.........=P.
	0x0030:  0000 f7db 0000 0000 0000 0000            ............
20:46:21.890546 IP (tos 0x0, ttl  64, id 3398, offset 0, flags [DF], proto 6, length: 40) dillinger.3986 > flynn.54256: R [tcp sum ok] 0:0(0) ack 278379581 win 0
	0x0000:  000e 0c66 83a8 0004 23ae cb68 0800 4500  ...f....#..h..E.
	0x0010:  0028 0d46 4000 4006 1783 0a01 0102 0a01  .(.F@.@.........
	0x0020:  0104 0f92 d3f0 0000 0000 1097 bc3d 5014  .............=P.
	0x0030:  0000 e971 0000 0000 0000 0000            ...q........
20:46:21.890546 IP (tos 0x0, ttl  47, id 33638, offset 0, flags [none], proto 6, length: 44) flynn.54256 > dillinger.276: S [tcp sum ok] 278379580:278379580(0) win 4096 <mss 1460>
	0x0000:  0004 23ae cb68 000e 0c66 83a8 0800 4500  ..#..h...f....E.
	0x0010:  002c 8366 0000 2f06 f25e 0a01 0104 0a01  .,.f../..^......
	0x0020:  0102 d3f0 0114 1097 bc3c 0000 0000 6002  .........<....`.
	0x0030:  1000 d046 0000 0204 05b4                 ...F......
20:46:21.890551 IP (tos 0x0, ttl  64, id 3399, offset 0, flags [DF], proto 6, length: 40) dillinger.csnet-ns > flynn.54256: R [tcp sum ok] 0:0(0) ack 278379581 win 0
	0x0000:  000e 0c66 83a8 0004 23ae cb68 0800 4500  ...f....#..h..E.
	0x0010:  0028 0d47 4000 4006 1782 0a01 0102 0a01  .(.G@.@.........
	0x0020:  0104 0069 d3f0 0000 0000 1097 bc3d 5014  ...i.........=P.
	0x0030:  0000 f89a 0000 0000 0000 0000            ............
20:46:21.890556 IP (tos 0x0, ttl  64, id 3400, offset 0, flags [DF], proto 6, length: 40) dillinger.126 > flynn.54256: R [tcp sum ok] 0:0(0) ack 278379581 win 0
	0x0000:  000e 0c66 83a8 0004 23ae cb68 0800 4500  ...f....#..h..E.
	0x0010:  0028 0d48 4000 4006 1781 0a01 0102 0a01  .(.H@.@.........
	0x0020:  0104 007e d3f0 0000 0000 1097 bc3d 5014  ...~.........=P.
	0x0030:  0000 f885 0000 0000 0000 0000            ............
20:46:21.890577 IP (tos 0x0, ttl  42, id 54064, offset 0, flags [none], proto 6, length: 44) flynn.54256 > dillinger.1007: S [tcp sum ok] 278379580:278379580(0) win 3072 <mss 1460>
	0x0000:  0004 23ae cb68 000e 0c66 83a8 0800 4500  ..#..h...f....E.
	0x0010:  002c d330 0000 2a06 a794 0a01 0104 0a01  .,.0..*.........
	0x0020:  0102 d3f0 03ef 1097 bc3c 0000 0000 6002  .........<....`.
	0x0030:  0c00 d16b 0000 0204 05b4                 ...k......
20:46:21.890606 IP (tos 0x0, ttl  50, id 59171, offset 0, flags [none], proto 6, length: 44) flynn.54256 > dillinger.1365: S [tcp sum ok] 278379580:278379580(0) win 3072 <mss 1460>
	0x0000:  0004 23ae cb68 000e 0c66 83a8 0800 4500  ..#..h...f....E.
	0x0010:  002c e723 0000 3206 8ba1 0a01 0104 0a01  .,.#..2.........
	0x0020:  0102 d3f0 0555 1097 bc3c 0000 0000 6002  .....U...<....`.
	0x0030:  0c00 d005 0000 0204 05b4                 ..........
20:46:21.890637 IP (tos 0x0, ttl  58, id 53112, offset 0, flags [none], proto 6, length: 44) flynn.54256 > dillinger.34: S [tcp sum ok] 278379580:278379580(0) win 3072 <mss 1460>
	0x0000:  0004 23ae cb68 000e 0c66 83a8 0800 4500  ..#..h...f....E.
	0x0010:  002c cf78 0000 3a06 9b4c 0a01 0104 0a01  .,.x..:..L......
	0x0020:  0102 d3f0 0022 1097 bc3c 0000 0000 6002  ....."...<....`.
	0x0030:  0c00 d538 0000 0204 05b4                 ...8......
20:46:21.890666 IP (tos 0x0, ttl  50, id 65141, offset 0, flags [none], proto 6, length: 44) flynn.54256 > dillinger.5530: S [tcp sum ok] 278379580:278379580(0) win 3072 <mss 1460>
	0x0000:  0004 23ae cb68 000e 0c66 83a8 0800 4500  ..#..h...f....E.
	0x0010:  002c fe75 0000 3206 744f 0a01 0104 0a01  .,.u..2.tO......
	0x0020:  0102 d3f0 159a 1097 bc3c 0000 0000 6002  .........<....`.
	0x0030:  0c00 bfc0 0000 0204 05b4                 ..........
20:46:21.890695 IP (tos 0x0, ttl  43, id 31064, offset 0, flags [none], proto 6, length: 44) flynn.54256 > dillinger.1033: S [tcp sum ok] 278379580:278379580(0) win 4096 <mss 1460>
	0x0000:  0004 23ae cb68 000e 0c66 83a8 0800 4500  ..#..h...f....E.
	0x0010:  002c 7958 0000 2b06 006d 0a01 0104 0a01  .,yX..+..m......
	0x0020:  0102 d3f0 0409 1097 bc3c 0000 0000 6002  .........<....`.
	0x0030:  1000 cd51 0000 0204 05b4                 ...Q......
20:46:21.890723 IP (tos 0x0, ttl  41, id 31931, offset 0, flags [none], proto 6, length: 44) flynn.54256 > dillinger.156: S [tcp sum ok] 278379580:278379580(0) win 2048 <mss 1460>
	0x0000:  0004 23ae cb68 000e 0c66 83a8 0800 4500  ..#..h...f....E.
	0x0010:  002c 7cbb 0000 2906 ff09 0a01 0104 0a01  .,|...).........
	0x0020:  0102 d3f0 009c 1097 bc3c 0000 0000 6002  .........<....`.
	0x0030:  0800 d8be 0000 0204 05b4                 ..........
20:46:21.890752 IP (tos 0x0, ttl  52, id 16546, offset 0, flags [none], proto 6, length: 44) flynn.54256 > dillinger.6111: S [tcp sum ok] 278379580:278379580(0) win 1024 <mss 1460>
	0x0000:  0004 23ae cb68 000e 0c66 83a8 0800 4500  ..#..h...f....E.
	0x0010:  002c 40a2 0000 3406 3023 0a01 0104 0a01  .,@...4.0#......
	0x0020:  0102 d3f0 17df 1097 bc3c 0000 0000 6002  .........<....`.
	0x0030:  0400 c57b 0000 0204 05b4                 ...{......
20:46:21.890767 IP (tos 0x0, ttl  64, id 3401, offset 0, flags [DF], proto 6, length: 40) dillinger.1420 > flynn.54256: R [tcp sum ok] 0:0(0) ack 278379581 win 0
	0x0000:  000e 0c66 83a8 0004 23ae cb68 0800 4500  ...f....#..h..E.
	0x0010:  0028 0d49 4000 4006 1780 0a01 0102 0a01  .(.I@.@.........
	0x0020:  0104 058c d3f0 0000 0000 1097 bc3d 5014  .............=P.
	0x0030:  0000 f377 0000 0000 0000 0000            ...w........
20:46:21.890772 IP (tos 0x0, ttl  64, id 3402, offset 0, flags [DF], proto 6, length: 40) dillinger.8082 > flynn.54256: R [tcp sum ok] 0:0(0) ack 278379581 win 0
	0x0000:  000e 0c66 83a8 0004 23ae cb68 0800 4500  ...f....#..h..E.
	0x0010:  0028 0d4a 4000 4006 177f 0a01 0102 0a01  .(.J@.@.........
	0x0020:  0104 1f92 d3f0 0000 0000 1097 bc3d 5014  .............=P.
	0x0030:  0000 d971 0000 0000 0000 0000            ...q........
20:46:21.890777 IP (tos 0x0, ttl  64, id 3403, offset 0, flags [DF], proto 6, length: 40) dillinger.383 > flynn.54256: R [tcp sum ok] 0:0(0) ack 278379581 win 0
	0x0000:  000e 0c66 83a8 0004 23ae cb68 0800 4500  ...f....#..h..E.
	0x0010:  0028 0d4b 4000 4006 177e 0a01 0102 0a01  .(.K@.@..~......
	0x0020:  0104 017f d3f0 0000 0000 1097 bc3d 5014  .............=P.
	0x0030:  0000 f784 0000 0000 0000 0000            ............
20:46:21.890780 IP (tos 0x0, ttl  55, id 43146, offset 0, flags [none], proto 6, length: 44) flynn.54256 > dillinger.sftp: S [tcp sum ok] 278379580:278379580(0) win 4096 <mss 1460>
	0x0000:  0004 23ae cb68 000e 0c66 83a8 0800 4500  ..#..h...f....E.
	0x0010:  002c a88a 0000 3706 c53a 0a01 0104 0a01  .,....7..:......
	0x0020:  0102 d3f0 0073 1097 bc3c 0000 0000 6002  .....s...<....`.
	0x0030:  1000 d0e7 0000 0204 05b4                 ..........
20:46:21.890782 IP (tos 0x0, ttl  64, id 3404, offset 0, flags [DF], proto 6, length: 40) dillinger.870 > flynn.54256: R [tcp sum ok] 0:0(0) ack 278379581 win 0
	0x0000:  000e 0c66 83a8 0004 23ae cb68 0800 4500  ...f....#..h..E.
	0x0010:  0028 0d4c 4000 4006 177d 0a01 0102 0a01  .(.L@.@..}......
	0x0020:  0104 0366 d3f0 0000 0000 1097 bc3d 5014  ...f.........=P.
	0x0030:  0000 f59d 0000 0000 0000 0000            ............
20:46:21.890786 IP (tos 0x0, ttl  64, id 3405, offset 0, flags [DF], proto 6, length: 40) dillinger.27004 > flynn.54256: R [tcp sum ok] 0:0(0) ack 278379581 win 0
	0x0000:  000e 0c66 83a8 0004 23ae cb68 0800 4500  ...f....#..h..E.
	0x0010:  0028 0d4d 4000 4006 177c 0a01 0102 0a01  .(.M@.@..|......
	0x0020:  0104 697c d3f0 0000 0000 1097 bc3d 5014  ..i|.........=P.
	0x0030:  0000 8f87 0000 0000 0000 0000            ............
20:46:21.890791 IP (tos 0x0, ttl  64, id 3406, offset 0, flags [DF], proto 6, length: 40) dillinger.571 > flynn.54256: R [tcp sum ok] 0:0(0) ack 278379581 win 0
	0x0000:  000e 0c66 83a8 0004 23ae cb68 0800 4500  ...f....#..h..E.
	0x0010:  0028 0d4e 4000 4006 177b 0a01 0102 0a01  .(.N@.@..{......
	0x0020:  0104 023b d3f0 0000 0000 1097 bc3d 5014  ...;.........=P.
	0x0030:  0000 f6c8 0000 0000 0000 0000            ............
20:46:21.890795 IP (tos 0x0, ttl  64, id 3407, offset 0, flags [DF], proto 6, length: 40) dillinger.638 > flynn.54256: R [tcp sum ok] 0:0(0) ack 278379581 win 0
	0x0000:  000e 0c66 83a8 0004 23ae cb68 0800 4500  ...f....#..h..E.
	0x0010:  0028 0d4f 4000 4006 177a 0a01 0102 0a01  .(.O@.@..z......
	0x0020:  0104 027e d3f0 0000 0000 1097 bc3d 5014  ...~.........=P.
	0x0030:  0000 f685 0000 0000 0000 0000            ............
20:46:21.890800 IP (tos 0x0, ttl  64, id 3408, offset 0, flags [DF], proto 6, length: 40) dillinger.276 > flynn.54256: R [tcp sum ok] 0:0(0) ack 278379581 win 0
	0x0000:  000e 0c66 83a8 0004 23ae cb68 0800 4500  ...f....#..h..E.
	0x0010:  0028 0d50 4000 4006 1779 0a01 0102 0a01  .(.P@.@..y......
	0x0020:  0104 0114 d3f0 0000 0000 1097 bc3d 5014  .............=P.
	0x0030:  0000 f7ef 0000 0000 0000 0000            ............
20:46:21.890808 IP (tos 0x0, ttl  44, id 50024, offset 0, flags [none], proto 6, length: 44) flynn.54256 > dillinger.kerberos-iv: S [tcp sum ok] 278379580:278379580(0) win 1024 <mss 1460>
	0x0000:  0004 23ae cb68 000e 0c66 83a8 0800 4500  ..#..h...f....E.
	0x0010:  002c c368 0000 2c06 b55c 0a01 0104 0a01  .,.h..,..\......
	0x0020:  0102 d3f0 02ee 1097 bc3c 0000 0000 6002  .........<....`.
	0x0030:  0400 da6c 0000 0204 05b4                 ...l......
20:46:21.891014 IP (tos 0x0, ttl  64, id 3409, offset 0, flags [DF], proto 6, length: 40) dillinger.1007 > flynn.54256: R [tcp sum ok] 0:0(0) ack 278379581 win 0
	0x0000:  000e 0c66 83a8 0004 23ae cb68 0800 4500  ...f....#..h..E.
	0x0010:  0028 0d51 4000 4006 1778 0a01 0102 0a01  .(.Q@.@..x......
	0x0020:  0104 03ef d3f0 0000 0000 1097 bc3d 5014  .............=P.
	0x0030:  0000 f514 0000 0000 0000 0000            ............
20:46:21.891020 IP (tos 0x0, ttl  64, id 3410, offset 0, flags [DF], proto 6, length: 40) dillinger.1365 > flynn.54256: R [tcp sum ok] 0:0(0) ack 278379581 win 0
	0x0000:  000e 0c66 83a8 0004 23ae cb68 0800 4500  ...f....#..h..E.
	0x0010:  0028 0d52 4000 4006 1777 0a01 0102 0a01  .(.R@.@..w......
	0x0020:  0104 0555 d3f0 0000 0000 1097 bc3d 5014  ...U.........=P.
	0x0030:  0000 f3ae 0000 0000 0000 0000            ............
20:46:21.891024 IP (tos 0x0, ttl  64, id 3411, offset 0, flags [DF], proto 6, length: 40) dillinger.34 > flynn.54256: R [tcp sum ok] 0:0(0) ack 278379581 win 0
	0x0000:  000e 0c66 83a8 0004 23ae cb68 0800 4500  ...f....#..h..E.
	0x0010:  0028 0d53 4000 4006 1776 0a01 0102 0a01  .(.S@.@..v......
	0x0020:  0104 0022 d3f0 0000 0000 1097 bc3d 5014  ...".........=P.
	0x0030:  0000 f8e1 0000 0000 0000 0000            ............
20:46:21.891029 IP (tos 0x0, ttl  64, id 3412, offset 0, flags [DF], proto 6, length: 40) dillinger.5530 > flynn.54256: R [tcp sum ok] 0:0(0) ack 278379581 win 0
	0x0000:  000e 0c66 83a8 0004 23ae cb68 0800 4500  ...f....#..h..E.
	0x0010:  0028 0d54 4000 4006 1775 0a01 0102 0a01  .(.T@.@..u......
	0x0020:  0104 159a d3f0 0000 0000 1097 bc3d 5014  .............=P.
	0x0030:  0000 e369 0000 0000 0000 0000            ...i........
20:46:21.891033 IP (tos 0x0, ttl  64, id 3413, offset 0, flags [DF], proto 6, length: 40) dillinger.1033 > flynn.54256: R [tcp sum ok] 0:0(0) ack 278379581 win 0
	0x0000:  000e 0c66 83a8 0004 23ae cb68 0800 4500  ...f....#..h..E.
	0x0010:  0028 0d55 4000 4006 1774 0a01 0102 0a01  .(.U@.@..t......
	0x0020:  0104 0409 d3f0 0000 0000 1097 bc3d 5014  .............=P.
	0x0030:  0000 f4fa 0000 0000 0000 0000            ............
20:46:21.891039 IP (tos 0x0, ttl  64, id 3414, offset 0, flags [DF], proto 6, length: 40) dillinger.156 > flynn.54256: R [tcp sum ok] 0:0(0) ack 278379581 win 0
	0x0000:  000e 0c66 83a8 0004 23ae cb68 0800 4500  ...f....#..h..E.
	0x0010:  0028 0d56 4000 4006 1773 0a01 0102 0a01  .(.V@.@..s......
	0x0020:  0104 009c d3f0 0000 0000 1097 bc3d 5014  .............=P.
	0x0030:  0000 f867 0000 0000 0000 0000            ...g........
20:46:21.891047 IP (tos 0x0, ttl  64, id 3415, offset 0, flags [DF], proto 6, length: 40) dillinger.6111 > flynn.54256: R [tcp sum ok] 0:0(0) ack 278379581 win 0
	0x0000:  000e 0c66 83a8 0004 23ae cb68 0800 4500  ...f....#..h..E.
	0x0010:  0028 0d57 4000 4006 1772 0a01 0102 0a01  .(.W@.@..r......
	0x0020:  0104 17df d3f0 0000 0000 1097 bc3d 5014  .............=P.
	0x0030:  0000 e124 0000 0000 0000 0000            ...$........
20:46:21.891051 IP (tos 0x0, ttl  64, id 3416, offset 0, flags [DF], proto 6, length: 40) dillinger.sftp > flynn.54256: R [tcp sum ok] 0:0(0) ack 278379581 win 0
	0x0000:  000e 0c66 83a8 0004 23ae cb68 0800 4500  ...f....#..h..E.
	0x0010:  0028 0d58 4000 4006 1771 0a01 0102 0a01  .(.X@.@..q......
	0x0020:  0104 0073 d3f0 0000 0000 1097 bc3d 5014  ...s.........=P.
	0x0030:  0000 f890 0000 0000 0000 0000            ............
20:46:21.891055 IP (tos 0x0, ttl  64, id 3417, offset 0, flags [DF], proto 6, length: 40) dillinger.kerberos-iv > flynn.54256: R [tcp sum ok] 0:0(0) ack 278379581 win 0
	0x0000:  000e 0c66 83a8 0004 23ae cb68 0800 4500  ...f....#..h..E.
	0x0010:  0028 0d59 4000 4006 1770 0a01 0102 0a01  .(.Y@.@..p......
	0x0020:  0104 02ee d3f0 0000 0000 1097 bc3d 5014  .............=P.
	0x0030:  0000 f615 0000 0000 0000 0000            ............
20:46:21.891830 IP (tos 0x0, ttl  59, id 27323, offset 0, flags [none], proto 6, length: 44) flynn.54256 > dillinger.312: S [tcp sum ok] 278379580:278379580(0) win 4096 <mss 1460>
	0x0000:  0004 23ae cb68 000e 0c66 83a8 0800 4500  ..#..h...f....E.
	0x0010:  002c 6abb 0000 3b06 ff09 0a01 0104 0a01  .,j...;.........
	0x0020:  0102 d3f0 0138 1097 bc3c 0000 0000 6002  .....8...<....`.
	0x0030:  1000 d022 0000 0204 05b4                 ..."......
20:46:21.891859 IP (tos 0x0, ttl  43, id 26623, offset 0, flags [none], proto 6, length: 44) flynn.54256 > dillinger.990: S [tcp sum ok] 278379580:278379580(0) win 4096 <mss 1460>
	0x0000:  0004 23ae cb68 000e 0c66 83a8 0800 4500  ..#..h...f....E.
	0x0010:  002c 67ff 0000 2b06 11c6 0a01 0104 0a01  .,g...+.........
	0x0020:  0102 d3f0 03de 1097 bc3c 0000 0000 6002  .........<....`.
	0x0030:  1000 cd7c 0000 0204 05b4                 ...|......
20:46:21.891891 IP (tos 0x0, ttl  40, id 33536, offset 0, flags [none], proto 6, length: 44) flynn.54256 > dillinger.406: S [tcp sum ok] 278379580:278379580(0) win 1024 <mss 1460>
	0x0000:  0004 23ae cb68 000e 0c66 83a8 0800 4500  ..#..h...f....E.
	0x0010:  002c 8300 0000 2806 f9c4 0a01 0104 0a01  .,....(.........
	0x0020:  0102 d3f0 0196 1097 bc3c 0000 0000 6002  .........<....`.
	0x0030:  0400 dbc4 0000 0204 05b4                 ..........
20:46:21.891920 IP (tos 0x0, ttl  38, id 52633, offset 0, flags [none], proto 6, length: 44) flynn.54256 > dillinger.2111: S [tcp sum ok] 278379580:278379580(0) win 3072 <mss 1460>
	0x0000:  0004 23ae cb68 000e 0c66 83a8 0800 4500  ..#..h...f....E.
	0x0010:  002c cd99 0000 2606 b12b 0a01 0104 0a01  .,....&..+......
	0x0020:  0102 d3f0 083f 1097 bc3c 0000 0000 6002  .....?...<....`.
	0x0030:  0c00 cd1b 0000 0204 05b4                 ..........
20:46:21.891953 IP (tos 0x0, ttl  51, id 5841, offset 0, flags [none], proto 6, length: 44) flynn.54256 > dillinger.460: S [tcp sum ok] 278379580:278379580(0) win 4096 <mss 1460>
	0x0000:  0004 23ae cb68 000e 0c66 83a8 0800 4500  ..#..h...f....E.
	0x0010:  002c 16d1 0000 3306 5af4 0a01 0104 0a01  .,....3.Z.......
	0x0020:  0102 d3f0 01cc 1097 bc3c 0000 0000 6002  .........<....`.
	0x0030:  1000 cf8e 0000 0204 05b4                 ..........
20:46:21.891982 IP (tos 0x0, ttl  37, id 47015, offset 0, flags [none], proto 6, length: 44) flynn.54256 > dillinger.gdomap: S [tcp sum ok] 278379580:278379580(0) win 2048 <mss 1460>
	0x0000:  0004 23ae cb68 000e 0c66 83a8 0800 4500  ..#..h...f....E.
	0x0010:  002c b7a7 0000 2506 c81d 0a01 0104 0a01  .,....%.........
	0x0020:  0102 d3f0 021a 1097 bc3c 0000 0000 6002  .........<....`.
	0x0030:  0800 d740 0000 0204 05b4                 ...@......
20:46:21.892012 IP (tos 0x0, ttl  50, id 53602, offset 0, flags [none], proto 6, length: 44) flynn.54256 > dillinger.afpovertcp: S [tcp sum ok] 278379580:278379580(0) win 3072 <mss 1460>
	0x0000:  0004 23ae cb68 000e 0c66 83a8 0800 4500  ..#..h...f....E.
	0x0010:  002c d162 0000 3206 a162 0a01 0104 0a01  .,.b..2..b......
	0x0020:  0102 d3f0 0224 1097 bc3c 0000 0000 6002  .....$...<....`.
	0x0030:  0c00 d336 0000 0204 05b4                 ...6......
20:46:21.892041 IP (tos 0x0, ttl  59, id 42947, offset 0, flags [none], proto 6, length: 44) flynn.54256 > dillinger.170: S [tcp sum ok] 278379580:278379580(0) win 4096 <mss 1460>
	0x0000:  0004 23ae cb68 000e 0c66 83a8 0800 4500  ..#..h...f....E.
	0x0010:  002c a7c3 0000 3b06 c201 0a01 0104 0a01  .,....;.........
	0x0020:  0102 d3f0 00aa 1097 bc3c 0000 0000 6002  .........<....`.
	0x0030:  1000 d0b0 0000 0204 05b4                 ..........
20:46:21.892070 IP (tos 0x0, ttl  52, id 46653, offset 0, flags [none], proto 6, length: 44) flynn.54256 > dillinger.submission: S [tcp sum ok] 278379580:278379580(0) win 1024 <mss 1460>
	0x0000:  0004 23ae cb68 000e 0c66 83a8 0800 4500  ..#..h...f....E.
	0x0010:  002c b63d 0000 3406 ba87 0a01 0104 0a01  .,.=..4.........
	0x0020:  0102 d3f0 024b 1097 bc3c 0000 0000 6002  .....K...<....`.
	0x0030:  0400 db0f 0000 0204 05b4                 ..........
20:46:21.892100 IP (tos 0x0, ttl  59, id 27670, offset 0, flags [none], proto 6, length: 44) flynn.54256 > dillinger.13712: S [tcp sum ok] 278379580:278379580(0) win 4096 <mss 1460>
	0x0000:  0004 23ae cb68 000e 0c66 83a8 0800 4500  ..#..h...f....E.
	0x0010:  002c 6c16 0000 3b06 fdae 0a01 0104 0a01  .,l...;.........
	0x0020:  0102 d3f0 3590 1097 bc3c 0000 0000 6002  ....5....<....`.
	0x0030:  1000 9bca 0000 0204 05b4                 ..........
20:46:21.892130 IP (tos 0x0, ttl  43, id 35914, offset 0, flags [none], proto 6, length: 44) flynn.54256 > dillinger.1027: S [tcp sum ok] 278379580:278379580(0) win 4096 <mss 1460>
	0x0000:  0004 23ae cb68 000e 0c66 83a8 0800 4500  ..#..h...f....E.
	0x0010:  002c 8c4a 0000 2b06 ed7a 0a01 0104 0a01  .,.J..+..z......
	0x0020:  0102 d3f0 0403 1097 bc3c 0000 0000 6002  .........<....`.
	0x0030:  1000 cd57 0000 0204 05b4                 ...W......
20:46:21.892159 IP (tos 0x0, ttl  46, id 58982, offset 0, flags [none], proto 6, length: 44) flynn.54256 > dillinger.1367: S [tcp sum ok] 278379580:278379580(0) win 3072 <mss 1460>
	0x0000:  0004 23ae cb68 000e 0c66 83a8 0800 4500  ..#..h...f....E.
	0x0010:  002c e666 0000 2e06 905e 0a01 0104 0a01  .,.f.....^......
	0x0020:  0102 d3f0 0557 1097 bc3c 0000 0000 6002  .....W...<....`.
	0x0030:  0c00 d003 0000 0204 05b4                 ..........
20:46:21.892188 IP (tos 0x0, ttl  43, id 6796, offset 0, flags [none], proto 6, length: 44) flynn.54256 > dillinger.817: S [tcp sum ok] 278379580:278379580(0) win 4096 <mss 1460>
	0x0000:  0004 23ae cb68 000e 0c66 83a8 0800 4500  ..#..h...f....E.
	0x0010:  002c 1a8c 0000 2b06 5f39 0a01 0104 0a01  .,....+._9......
	0x0020:  0102 d3f0 0331 1097 bc3c 0000 0000 6002  .....1...<....`.
	0x0030:  1000 ce29 0000 0204 05b4                 ...)......
20:46:21.892217 IP (tos 0x0, ttl  52, id 7617, offset 0, flags [none], proto 6, length: 44) flynn.54256 > dillinger.885: S [tcp sum ok] 278379580:278379580(0) win 1024 <mss 1460>
	0x0000:  0004 23ae cb68 000e 0c66 83a8 0800 4500  ..#..h...f....E.
	0x0010:  002c 1dc1 0000 3406 5304 0a01 0104 0a01  .,....4.S.......
	0x0020:  0102 d3f0 0375 1097 bc3c 0000 0000 6002  .....u...<....`.
	0x0030:  0400 d9e5 0000 0204 05b4                 ..........
20:46:21.892247 IP (tos 0x0, ttl  40, id 43605, offset 0, flags [none], proto 6, length: 44) flynn.54256 > dillinger.2015: S [tcp sum ok] 278379580:278379580(0) win 1024 <mss 1460>
	0x0000:  0004 23ae cb68 000e 0c66 83a8 0800 4500  ..#..h...f....E.
	0x0010:  002c aa55 0000 2806 d26f 0a01 0104 0a01  .,.U..(..o......
	0x0020:  0102 d3f0 07df 1097 bc3c 0000 0000 6002  .........<....`.
	0x0030:  0400 d57b 0000 0204 05b4                 ...{......
20:46:21.892269 IP (tos 0x0, ttl  64, id 3418, offset 0, flags [DF], proto 6, length: 40) dillinger.312 > flynn.54256: R [tcp sum ok] 0:0(0) ack 278379581 win 0
	0x0000:  000e 0c66 83a8 0004 23ae cb68 0800 4500  ...f....#..h..E.
	0x0010:  0028 0d5a 4000 4006 176f 0a01 0102 0a01  .(.Z@.@..o......
	0x0020:  0104 0138 d3f0 0000 0000 1097 bc3d 5014  ...8.........=P.
	0x0030:  0000 f7cb 0000 0000 0000 0000            ............
20:46:21.892275 IP (tos 0x0, ttl  45, id 1057, offset 0, flags [none], proto 6, length: 44) flynn.54256 > dillinger.6668: S [tcp sum ok] 278379580:278379580(0) win 2048 <mss 1460>
	0x0000:  0004 23ae cb68 000e 0c66 83a8 0800 4500  ..#..h...f....E.
	0x0010:  002c 0421 0000 2d06 73a4 0a01 0104 0a01  .,.!..-.s.......
	0x0020:  0102 d3f0 1a0c 1097 bc3c 0000 0000 6002  .........<....`.
	0x0030:  0800 bf4e 0000 0204 05b4                 ...N......
20:46:21.892276 IP (tos 0x0, ttl  64, id 3419, offset 0, flags [DF], proto 6, length: 40) dillinger.990 > flynn.54256: R [tcp sum ok] 0:0(0) ack 278379581 win 0
	0x0000:  000e 0c66 83a8 0004 23ae cb68 0800 4500  ...f....#..h..E.
	0x0010:  0028 0d5b 4000 4006 176e 0a01 0102 0a01  .(.[@.@..n......
	0x0020:  0104 03de d3f0 0000 0000 1097 bc3d 5014  .............=P.
	0x0030:  0000 f525 0000 0000 0000 0000            ...%........
20:46:21.892281 IP (tos 0x0, ttl  64, id 3420, offset 0, flags [DF], proto 6, length: 40) dillinger.406 > flynn.54256: R [tcp sum ok] 0:0(0) ack 278379581 win 0
	0x0000:  000e 0c66 83a8 0004 23ae cb68 0800 4500  ...f....#..h..E.
	0x0010:  0028 0d5c 4000 4006 176d 0a01 0102 0a01  .(.\@.@..m......
	0x0020:  0104 0196 d3f0 0000 0000 1097 bc3d 5014  .............=P.
	0x0030:  0000 f76d 0000 0000 0000 0000            ...m........
20:46:21.892286 IP (tos 0x0, ttl  64, id 3421, offset 0, flags [DF], proto 6, length: 40) dillinger.2111 > flynn.54256: R [tcp sum ok] 0:0(0) ack 278379581 win 0
	0x0000:  000e 0c66 83a8 0004 23ae cb68 0800 4500  ...f....#..h..E.
	0x0010:  0028 0d5d 4000 4006 176c 0a01 0102 0a01  .(.]@.@..l......
	0x0020:  0104 083f d3f0 0000 0000 1097 bc3d 5014  ...?.........=P.
	0x0030:  0000 f0c4 0000 0000 0000 0000            ............
20:46:21.892290 IP (tos 0x0, ttl  64, id 3422, offset 0, flags [DF], proto 6, length: 40) dillinger.460 > flynn.54256: R [tcp sum ok] 0:0(0) ack 278379581 win 0
	0x0000:  000e 0c66 83a8 0004 23ae cb68 0800 4500  ...f....#..h..E.
	0x0010:  0028 0d5e 4000 4006 176b 0a01 0102 0a01  .(.^@.@..k......
	0x0020:  0104 01cc d3f0 0000 0000 1097 bc3d 5014  .............=P.
	0x0030:  0000 f737 0000 0000 0000 0000            ...7........
20:46:21.892295 IP (tos 0x0, ttl  64, id 3423, offset 0, flags [DF], proto 6, length: 40) dillinger.gdomap > flynn.54256: R [tcp sum ok] 0:0(0) ack 278379581 win 0
	0x0000:  000e 0c66 83a8 0004 23ae cb68 0800 4500  ...f....#..h..E.
	0x0010:  0028 0d5f 4000 4006 176a 0a01 0102 0a01  .(._@.@..j......
	0x0020:  0104 021a d3f0 0000 0000 1097 bc3d 5014  .............=P.
	0x0030:  0000 f6e9 0000 0000 0000 0000            ............
20:46:21.892299 IP (tos 0x0, ttl  64, id 3424, offset 0, flags [DF], proto 6, length: 40) dillinger.afpovertcp > flynn.54256: R [tcp sum ok] 0:0(0) ack 278379581 win 0
	0x0000:  000e 0c66 83a8 0004 23ae cb68 0800 4500  ...f....#..h..E.
	0x0010:  0028 0d60 4000 4006 1769 0a01 0102 0a01  .(.`@.@..i......
	0x0020:  0104 0224 d3f0 0000 0000 1097 bc3d 5014  ...$.........=P.
	0x0030:  0000 f6df 0000 0000 0000 0000            ............
20:46:21.892304 IP (tos 0x0, ttl  64, id 3425, offset 0, flags [DF], proto 6, length: 40) dillinger.170 > flynn.54256: R [tcp sum ok] 0:0(0) ack 278379581 win 0
	0x0000:  000e 0c66 83a8 0004 23ae cb68 0800 4500  ...f....#..h..E.
	0x0010:  0028 0d61 4000 4006 1768 0a01 0102 0a01  .(.a@.@..h......
	0x0020:  0104 00aa d3f0 0000 0000 1097 bc3d 5014  .............=P.
	0x0030:  0000 f859 0000 0000 0000 0000            ...Y........
20:46:21.892304 IP (tos 0x0, ttl  37, id 10832, offset 0, flags [none], proto 6, length: 44) flynn.54256 > dillinger.706: S [tcp sum ok] 278379580:278379580(0) win 2048 <mss 1460>
	0x0000:  0004 23ae cb68 000e 0c66 83a8 0800 4500  ..#..h...f....E.
	0x0010:  002c 2a50 0000 2506 5575 0a01 0104 0a01  .,*P..%.Uu......
	0x0020:  0102 d3f0 02c2 1097 bc3c 0000 0000 6002  .........<....`.
	0x0030:  0800 d698 0000 0204 05b4                 ..........
20:46:21.892335 IP (tos 0x0, ttl  37, id 3542, offset 0, flags [none], proto 6, length: 44) flynn.54256 > dillinger.2006: S [tcp sum ok] 278379580:278379580(0) win 2048 <mss 1460>
	0x0000:  0004 23ae cb68 000e 0c66 83a8 0800 4500  ..#..h...f....E.
	0x0010:  002c 0dd6 0000 2506 71ef 0a01 0104 0a01  .,....%.q.......
	0x0020:  0102 d3f0 07d6 1097 bc3c 0000 0000 6002  .........<....`.
	0x0030:  0800 d184 0000 0204 05b4                 ..........
20:46:21.892364 IP (tos 0x0, ttl  59, id 16765, offset 0, flags [none], proto 6, length: 44) flynn.54256 > dillinger.nicname: S [tcp sum ok] 278379580:278379580(0) win 4096 <mss 1460>
	0x0000:  0004 23ae cb68 000e 0c66 83a8 0800 4500  ..#..h...f....E.
	0x0010:  002c 417d 0000 3b06 2848 0a01 0104 0a01  .,A}..;.(H......
	0x0020:  0102 d3f0 002b 1097 bc3c 0000 0000 6002  .....+...<....`.
	0x0030:  1000 d12f 0000 0204 05b4                 .../......
20:46:21.892397 IP (tos 0x0, ttl  45, id 47059, offset 0, flags [none], proto 6, length: 44) flynn.54256 > dillinger.307: S [tcp sum ok] 278379580:278379580(0) win 2048 <mss 1460>
	0x0000:  0004 23ae cb68 000e 0c66 83a8 0800 4500  ..#..h...f....E.
	0x0010:  002c b7d3 0000 2d06 bff1 0a01 0104 0a01  .,....-.........
	0x0020:  0102 d3f0 0133 1097 bc3c 0000 0000 6002  .....3...<....`.
	0x0030:  0800 d827 0000 0204 05b4                 ...'......
20:46:21.892428 IP (tos 0x0, ttl  54, id 29778, offset 0, flags [none], proto 6, length: 44) flynn.54256 > dillinger.66: S [tcp sum ok] 278379580:278379580(0) win 3072 <mss 1460>
	0x0000:  0004 23ae cb68 000e 0c66 83a8 0800 4500  ..#..h...f....E.
	0x0010:  002c 7452 0000 3606 fa72 0a01 0104 0a01  .,tR..6..r......
	0x0020:  0102 d3f0 0042 1097 bc3c 0000 0000 6002  .....B...<....`.
	0x0030:  0c00 d518 0000 0204 05b4                 ..........
20:46:21.892460 IP (tos 0x0, ttl  53, id 44147, offset 0, flags [none], proto 6, length: 44) flynn.54256 > dillinger.108: S [tcp sum ok] 278379580:278379580(0) win 2048 <mss 1460>
	0x0000:  0004 23ae cb68 000e 0c66 83a8 0800 4500  ..#..h...f....E.
	0x0010:  002c ac73 0000 3506 c351 0a01 0104 0a01  .,.s..5..Q......
	0x0020:  0102 d3f0 006c 1097 bc3c 0000 0000 6002  .....l...<....`.
	0x0030:  0800 d8ee 0000 0204 05b4                 ..........
20:46:21.892489 IP (tos 0x0, ttl  43, id 29106, offset 0, flags [none], proto 6, length: 44) flynn.54256 > dillinger.130: S [tcp sum ok] 278379580:278379580(0) win 4096 <mss 1460>
	0x0000:  0004 23ae cb68 000e 0c66 83a8 0800 4500  ..#..h...f....E.
	0x0010:  002c 71b2 0000 2b06 0813 0a01 0104 0a01  .,q...+.........
	0x0020:  0102 d3f0 0082 1097 bc3c 0000 0000 6002  .........<....`.
	0x0030:  1000 d0d8 0000 0204 05b4                 ..........
20:46:21.892518 IP (tos 0x0, ttl  64, id 3426, offset 0, flags [DF], proto 6, length: 40) dillinger.submission > flynn.54256: R [tcp sum ok] 0:0(0) ack 278379581 win 0
	0x0000:  000e 0c66 83a8 0004 23ae cb68 0800 4500  ...f....#..h..E.
	0x0010:  0028 0d62 4000 4006 1767 0a01 0102 0a01  .(.b@.@..g......
	0x0020:  0104 024b d3f0 0000 0000 1097 bc3d 5014  ...K.........=P.
	0x0030:  0000 f6b8 0000 0000 0000 0000            ............
20:46:21.892519 IP (tos 0x0, ttl  49, id 824, offset 0, flags [none], proto 6, length: 44) flynn.54256 > dillinger.5405: S [tcp sum ok] 278379580:278379580(0) win 2048 <mss 1460>
	0x0000:  0004 23ae cb68 000e 0c66 83a8 0800 4500  ..#..h...f....E.
	0x0010:  002c 0338 0000 3106 708d 0a01 0104 0a01  .,.8..1.p.......
	0x0020:  0102 d3f0 151d 1097 bc3c 0000 0000 6002  .........<....`.
	0x0030:  0800 c43d 0000 0204 05b4                 ...=......
20:46:21.892524 IP (tos 0x0, ttl  64, id 3427, offset 0, flags [DF], proto 6, length: 40) dillinger.13712 > flynn.54256: R [tcp sum ok] 0:0(0) ack 278379581 win 0
	0x0000:  000e 0c66 83a8 0004 23ae cb68 0800 4500  ...f....#..h..E.
	0x0010:  0028 0d63 4000 4006 1766 0a01 0102 0a01  .(.c@.@..f......
	0x0020:  0104 3590 d3f0 0000 0000 1097 bc3d 5014  ..5..........=P.
	0x0030:  0000 c373 0000 0000 0000 0000            ...s........
20:46:21.892528 IP (tos 0x0, ttl  64, id 3428, offset 0, flags [DF], proto 6, length: 40) dillinger.1027 > flynn.54256: R [tcp sum ok] 0:0(0) ack 278379581 win 0
	0x0000:  000e 0c66 83a8 0004 23ae cb68 0800 4500  ...f....#..h..E.
	0x0010:  0028 0d64 4000 4006 1765 0a01 0102 0a01  .(.d@.@..e......
	0x0020:  0104 0403 d3f0 0000 0000 1097 bc3d 5014  .............=P.
	0x0030:  0000 f500 0000 0000 0000 0000            ............
20:46:21.892533 IP (tos 0x0, ttl  64, id 3429, offset 0, flags [DF], proto 6, length: 40) dillinger.1367 > flynn.54256: R [tcp sum ok] 0:0(0) ack 278379581 win 0
	0x0000:  000e 0c66 83a8 0004 23ae cb68 0800 4500  ...f....#..h..E.
	0x0010:  0028 0d65 4000 4006 1764 0a01 0102 0a01  .(.e@.@..d......
	0x0020:  0104 0557 d3f0 0000 0000 1097 bc3d 5014  ...W.........=P.
	0x0030:  0000 f3ac 0000 0000 0000 0000            ............
20:46:21.892537 IP (tos 0x0, ttl  64, id 3430, offset 0, flags [DF], proto 6, length: 40) dillinger.817 > flynn.54256: R [tcp sum ok] 0:0(0) ack 278379581 win 0
	0x0000:  000e 0c66 83a8 0004 23ae cb68 0800 4500  ...f....#..h..E.
	0x0010:  0028 0d66 4000 4006 1763 0a01 0102 0a01  .(.f@.@..c......
	0x0020:  0104 0331 d3f0 0000 0000 1097 bc3d 5014  ...1.........=P.
	0x0030:  0000 f5d2 0000 0000 0000 0000            ............
20:46:21.892542 IP (tos 0x0, ttl  64, id 3431, offset 0, flags [DF], proto 6, length: 40) dillinger.885 > flynn.54256: R [tcp sum ok] 0:0(0) ack 278379581 win 0
	0x0000:  000e 0c66 83a8 0004 23ae cb68 0800 4500  ...f....#..h..E.
	0x0010:  0028 0d67 4000 4006 1762 0a01 0102 0a01  .(.g@.@..b......
	0x0020:  0104 0375 d3f0 0000 0000 1097 bc3d 5014  ...u.........=P.
	0x0030:  0000 f58e 0000 0000 0000 0000            ............
20:46:21.892546 IP (tos 0x0, ttl  64, id 3432, offset 0, flags [DF], proto 6, length: 40) dillinger.2015 > flynn.54256: R [tcp sum ok] 0:0(0) ack 278379581 win 0
	0x0000:  000e 0c66 83a8 0004 23ae cb68 0800 4500  ...f....#..h..E.
	0x0010:  0028 0d68 4000 4006 1761 0a01 0102 0a01  .(.h@.@..a......
	0x0020:  0104 07df d3f0 0000 0000 1097 bc3d 5014  .............=P.
	0x0030:  0000 f124 0000 0000 0000 0000            ...$........
20:46:21.892549 IP (tos 0x0, ttl  40, id 26692, offset 0, flags [none], proto 6, length: 44) flynn.54256 > dillinger.smux: S [tcp sum ok] 278379580:278379580(0) win 1024 <mss 1460>
	0x0000:  0004 23ae cb68 000e 0c66 83a8 0800 4500  ..#..h...f....E.
	0x0010:  002c 6844 0000 2806 1481 0a01 0104 0a01  .,hD..(.........
	0x0020:  0102 d3f0 00c7 1097 bc3c 0000 0000 6002  .........<....`.
	0x0030:  0400 dc93 0000 0204 05b4                 ..........
20:46:21.892551 IP (tos 0x0, ttl  64, id 3433, offset 0, flags [DF], proto 6, length: 40) dillinger.6668 > flynn.54256: R [tcp sum ok] 0:0(0) ack 278379581 win 0
	0x0000:  000e 0c66 83a8 0004 23ae cb68 0800 4500  ...f....#..h..E.
	0x0010:  0028 0d69 4000 4006 1760 0a01 0102 0a01  .(.i@.@..`......
	0x0020:  0104 1a0c d3f0 0000 0000 1097 bc3d 5014  .............=P.
	0x0030:  0000 def7 0000 0000 0000 0000            ............
20:46:21.892557 IP (tos 0x0, ttl  64, id 3434, offset 0, flags [DF], proto 6, length: 40) dillinger.706 > flynn.54256: R [tcp sum ok] 0:0(0) ack 278379581 win 0
	0x0000:  000e 0c66 83a8 0004 23ae cb68 0800 4500  ...f....#..h..E.
	0x0010:  0028 0d6a 4000 4006 175f 0a01 0102 0a01  .(.j@.@.._......
	0x0020:  0104 02c2 d3f0 0000 0000 1097 bc3d 5014  .............=P.
	0x0030:  0000 f641 0000 0000 0000 0000            ...A........
20:46:21.892577 IP (tos 0x0, ttl  52, id 26340, offset 0, flags [none], proto 6, length: 44) flynn.54256 > dillinger.5193: S [tcp sum ok] 278379580:278379580(0) win 1024 <mss 1460>
	0x0000:  0004 23ae cb68 000e 0c66 83a8 0800 4500  ..#..h...f....E.
	0x0010:  002c 66e4 0000 3406 09e1 0a01 0104 0a01  .,f...4.........
	0x0020:  0102 d3f0 1449 1097 bc3c 0000 0000 6002  .....I...<....`.
	0x0030:  0400 c911 0000 0204 05b4                 ..........
20:46:21.892607 IP (tos 0x0, ttl  58, id 6301, offset 0, flags [none], proto 6, length: 44) flynn.54256 > dillinger.38292: S [tcp sum ok] 278379580:278379580(0) win 3072 <mss 1460>
	0x0000:  0004 23ae cb68 000e 0c66 83a8 0800 4500  ..#..h...f....E.
	0x0010:  002c 189d 0000 3a06 5228 0a01 0104 0a01  .,....:.R(......
	0x0020:  0102 d3f0 9594 1097 bc3c 0000 0000 6002  .........<....`.
	0x0030:  0c00 3fc6 0000 0204 05b4                 ..?.......
20:46:21.892637 IP (tos 0x0, ttl  41, id 28348, offset 0, flags [none], proto 6, length: 44) flynn.54256 > dillinger.962: S [tcp sum ok] 278379580:278379580(0) win 2048 <mss 1460>
	0x0000:  0004 23ae cb68 000e 0c66 83a8 0800 4500  ..#..h...f....E.
	0x0010:  002c 6ebc 0000 2906 0d09 0a01 0104 0a01  .,n...).........
	0x0020:  0102 d3f0 03c2 1097 bc3c 0000 0000 6002  .........<....`.
	0x0030:  0800 d598 0000 0204 05b4                 ..........
20:46:21.892669 IP (tos 0x0, ttl  48, id 26199, offset 0, flags [none], proto 6, length: 44) flynn.54256 > dillinger.2232: S [tcp sum ok] 278379580:278379580(0) win 1024 <mss 1460>
	0x0000:  0004 23ae cb68 000e 0c66 83a8 0800 4500  ..#..h...f....E.
	0x0010:  002c 6657 0000 3006 0e6e 0a01 0104 0a01  .,fW..0..n......
	0x0020:  0102 d3f0 08b8 1097 bc3c 0000 0000 6002  .........<....`.
	0x0030:  0400 d4a2 0000 0204 05b4                 ..........
20:46:21.892698 IP (tos 0x0, ttl  59, id 63767, offset 0, flags [none], proto 6, length: 44) flynn.54256 > dillinger.292: S [tcp sum ok] 278379580:278379580(0) win 4096 <mss 1460>
	0x0000:  0004 23ae cb68 000e 0c66 83a8 0800 4500  ..#..h...f....E.
	0x0010:  002c f917 0000 3b06 70ad 0a01 0104 0a01  .,....;.p.......
	0x0020:  0102 d3f0 0124 1097 bc3c 0000 0000 6002  .....$...<....`.
	0x0030:  1000 d036 0000 0204 05b4                 ...6......
20:46:21.892727 IP (tos 0x0, ttl  39, id 5271, offset 0, flags [none], proto 6, length: 44) flynn.54256 > dillinger.632: S [tcp sum ok] 278379580:278379580(0) win 4096 <mss 1460>
	0x0000:  0004 23ae cb68 000e 0c66 83a8 0800 4500  ..#..h...f....E.
	0x0010:  002c 1497 0000 2706 692e 0a01 0104 0a01  .,....'.i.......
	0x0020:  0102 d3f0 0278 1097 bc3c 0000 0000 6002  .....x...<....`.
	0x0030:  1000 cee2 0000 0204 05b4                 ..........
20:46:21.892757 IP (tos 0x0, ttl  54, id 28665, offset 0, flags [none], proto 6, length: 44) flynn.54256 > dillinger.681: S [tcp sum ok] 278379580:278379580(0) win 3072 <mss 1460>
	0x0000:  0004 23ae cb68 000e 0c66 83a8 0800 4500  ..#..h...f....E.
	0x0010:  002c 6ff9 0000 3606 fecb 0a01 0104 0a01  .,o...6.........
	0x0020:  0102 d3f0 02a9 1097 bc3c 0000 0000 6002  .........<....`.
	0x0030:  0c00 d2b1 0000 0204 05b4                 ..........
20:46:21.892766 IP (tos 0x0, ttl  64, id 3435, offset 0, flags [DF], proto 6, length: 40) dillinger.2006 > flynn.54256: R [tcp sum ok] 0:0(0) ack 278379581 win 0
	0x0000:  000e 0c66 83a8 0004 23ae cb68 0800 4500  ...f....#..h..E.
	0x0010:  0028 0d6b 4000 4006 175e 0a01 0102 0a01  .(.k@.@..^......
	0x0020:  0104 07d6 d3f0 0000 0000 1097 bc3d 5014  .............=P.
	0x0030:  0000 f12d 0000 0000 0000 0000            ...-........
20:46:21.892772 IP (tos 0x0, ttl  64, id 3436, offset 0, flags [DF], proto 6, length: 40) dillinger.nicname > flynn.54256: R [tcp sum ok] 0:0(0) ack 278379581 win 0
	0x0000:  000e 0c66 83a8 0004 23ae cb68 0800 4500  ...f....#..h..E.
	0x0010:  0028 0d6c 4000 4006 175d 0a01 0102 0a01  .(.l@.@..]......
	0x0020:  0104 002b d3f0 0000 0000 1097 bc3d 5014  ...+.........=P.
	0x0030:  0000 f8d8 0000 0000 0000 0000            ............
20:46:21.892777 IP (tos 0x0, ttl  64, id 3437, offset 0, flags [DF], proto 6, length: 40) dillinger.307 > flynn.54256: R [tcp sum ok] 0:0(0) ack 278379581 win 0
	0x0000:  000e 0c66 83a8 0004 23ae cb68 0800 4500  ...f....#..h..E.
	0x0010:  0028 0d6d 4000 4006 175c 0a01 0102 0a01  .(.m@.@..\......
	0x0020:  0104 0133 d3f0 0000 0000 1097 bc3d 5014  ...3.........=P.
	0x0030:  0000 f7d0 0000 0000 0000 0000            ............
20:46:21.892782 IP (tos 0x0, ttl  64, id 3438, offset 0, flags [DF], proto 6, length: 40) dillinger.66 > flynn.54256: R [tcp sum ok] 0:0(0) ack 278379581 win 0
	0x0000:  000e 0c66 83a8 0004 23ae cb68 0800 4500  ...f....#..h..E.
	0x0010:  0028 0d6e 4000 4006 175b 0a01 0102 0a01  .(.n@.@..[......
	0x0020:  0104 0042 d3f0 0000 0000 1097 bc3d 5014  ...B.........=P.
	0x0030:  0000 f8c1 0000 0000 0000 0000            ............
20:46:21.892786 IP (tos 0x0, ttl  51, id 25462, offset 0, flags [none], proto 6, length: 44) flynn.54256 > dillinger.418: S [tcp sum ok] 278379580:278379580(0) win 4096 <mss 1460>
	0x0000:  0004 23ae cb68 000e 0c66 83a8 0800 4500  ..#..h...f....E.
	0x0010:  002c 6376 0000 3306 0e4f 0a01 0104 0a01  .,cv..3..O......
	0x0020:  0102 d3f0 01a2 1097 bc3c 0000 0000 6002  .........<....`.
	0x0030:  1000 cfb8 0000 0204 05b4                 ..........
20:46:21.892786 IP (tos 0x0, ttl  64, id 3439, offset 0, flags [DF], proto 6, length: 40) dillinger.108 > flynn.54256: R [tcp sum ok] 0:0(0) ack 278379581 win 0
	0x0000:  000e 0c66 83a8 0004 23ae cb68 0800 4500  ...f....#..h..E.
	0x0010:  0028 0d6f 4000 4006 175a 0a01 0102 0a01  .(.o@.@..Z......
	0x0020:  0104 006c d3f0 0000 0000 1097 bc3d 5014  ...l.........=P.
	0x0030:  0000 f897 0000 0000 0000 0000            ............
20:46:21.892791 IP (tos 0x0, ttl  64, id 3440, offset 0, flags [DF], proto 6, length: 40) dillinger.130 > flynn.54256: R [tcp sum ok] 0:0(0) ack 278379581 win 0
	0x0000:  000e 0c66 83a8 0004 23ae cb68 0800 4500  ...f....#..h..E.
	0x0010:  0028 0d70 4000 4006 1759 0a01 0102 0a01  .(.p@.@..Y......
	0x0020:  0104 0082 d3f0 0000 0000 1097 bc3d 5014  .............=P.
	0x0030:  0000 f881 0000 0000 0000 0000            ............
20:46:21.892797 IP (tos 0x0, ttl  64, id 3441, offset 0, flags [DF], proto 6, length: 40) dillinger.5405 > flynn.54256: R [tcp sum ok] 0:0(0) ack 278379581 win 0
	0x0000:  000e 0c66 83a8 0004 23ae cb68 0800 4500  ...f....#..h..E.
	0x0010:  0028 0d71 4000 4006 1758 0a01 0102 0a01  .(.q@.@..X......
	0x0020:  0104 151d d3f0 0000 0000 1097 bc3d 5014  .............=P.
	0x0030:  0000 e3e6 0000 0000 0000 0000            ............
20:46:21.892803 IP (tos 0x0, ttl  64, id 3442, offset 0, flags [DF], proto 6, length: 40) dillinger.smux > flynn.54256: R [tcp sum ok] 0:0(0) ack 278379581 win 0
	0x0000:  000e 0c66 83a8 0004 23ae cb68 0800 4500  ...f....#..h..E.
	0x0010:  0028 0d72 4000 4006 1757 0a01 0102 0a01  .(.r@.@..W......
	0x0020:  0104 00c7 d3f0 0000 0000 1097 bc3d 5014  .............=P.
	0x0030:  0000 f83c 0000 0000 0000 0000            ...<........
20:46:21.892815 IP (tos 0x0, ttl  43, id 52555, offset 0, flags [none], proto 6, length: 44) flynn.54256 > dillinger.27008: S [tcp sum ok] 278379580:278379580(0) win 4096 <mss 1460>
	0x0000:  0004 23ae cb68 000e 0c66 83a8 0800 4500  ..#..h...f....E.
	0x0010:  002c cd4b 0000 2b06 ac79 0a01 0104 0a01  .,.K..+..y......
	0x0020:  0102 d3f0 6980 1097 bc3c 0000 0000 6002  ....i....<....`.
	0x0030:  1000 67da 0000 0204 05b4                 ..g.......
20:46:21.892843 IP (tos 0x0, ttl  51, id 64948, offset 0, flags [none], proto 6, length: 44) flynn.54256 > dillinger.uucp: S [tcp sum ok] 278379580:278379580(0) win 4096 <mss 1460>
	0x0000:  0004 23ae cb68 000e 0c66 83a8 0800 4500  ..#..h...f....E.
	0x0010:  002c fdb4 0000 3306 7410 0a01 0104 0a01  .,....3.t.......
	0x0020:  0102 d3f0 021c 1097 bc3c 0000 0000 6002  .........<....`.
	0x0030:  1000 cf3e 0000 0204 05b4                 ...>......
20:46:21.892873 IP (tos 0x0, ttl  43, id 63370, offset 0, flags [none], proto 6, length: 44) flynn.54256 > dillinger.158: S [tcp sum ok] 278379580:278379580(0) win 4096 <mss 1460>
	0x0000:  0004 23ae cb68 000e 0c66 83a8 0800 4500  ..#..h...f....E.
	0x0010:  002c f78a 0000 2b06 823a 0a01 0104 0a01  .,....+..:......
	0x0020:  0102 d3f0 009e 1097 bc3c 0000 0000 6002  .........<....`.
	0x0030:  1000 d0bc 0000 0204 05b4                 ..........
20:46:21.892903 IP (tos 0x0, ttl  56, id 56438, offset 0, flags [none], proto 6, length: 44) flynn.54256 > dillinger.712: S [tcp sum ok] 278379580:278379580(0) win 1024 <mss 1460>
	0x0000:  0004 23ae cb68 000e 0c66 83a8 0800 4500  ..#..h...f....E.
	0x0010:  002c dc76 0000 3806 904e 0a01 0104 0a01  .,.v..8..N......
	0x0020:  0102 d3f0 02c8 1097 bc3c 0000 0000 6002  .........<....`.
	0x0030:  0400 da92 0000 0204 05b4                 ..........
20:46:21.892932 IP (tos 0x0, ttl  44, id 52399, offset 0, flags [none], proto 6, length: 44) flynn.54256 > dillinger.898: S [tcp sum ok] 278379580:278379580(0) win 1024 <mss 1460>
	0x0000:  0004 23ae cb68 000e 0c66 83a8 0800 4500  ..#..h...f....E.
	0x0010:  002c ccaf 0000 2c06 ac15 0a01 0104 0a01  .,....,.........
	0x0020:  0102 d3f0 0382 1097 bc3c 0000 0000 6002  .........<....`.
	0x0030:  0400 d9d8 0000 0204 05b4                 ..........
20:46:21.892965 IP (tos 0x0, ttl  50, id 36488, offset 0, flags [none], proto 6, length: 44) flynn.54256 > dillinger.190: S [tcp sum ok] 278379580:278379580(0) win 3072 <mss 1460>
	0x0000:  0004 23ae cb68 000e 0c66 83a8 0800 4500  ..#..h...f....E.
	0x0010:  002c 8e88 0000 3206 e43c 0a01 0104 0a01  .,....2..<......
	0x0020:  0102 d3f0 00be 1097 bc3c 0000 0000 6002  .........<....`.
	0x0030:  0c00 d49c 0000 0204 05b4                 ..........
20:46:21.892994 IP (tos 0x0, ttl  39, id 21976, offset 0, flags [none], proto 6, length: 44) flynn.54256 > dillinger.servicemeter: S [tcp sum ok] 278379580:278379580(0) win 4096 <mss 1460>
	0x0000:  0004 23ae cb68 000e 0c66 83a8 0800 4500  ..#..h...f....E.
	0x0010:  002c 55d8 0000 2706 27ed 0a01 0104 0a01  .,U...'.'.......
	0x0020:  0102 d3f0 0a2b 1097 bc3c 0000 0000 6002  .....+...<....`.
	0x0030:  1000 c72f 0000 0204 05b4                 .../......
20:46:21.893016 IP (tos 0x0, ttl  64, id 3443, offset 0, flags [DF], proto 6, length: 40) dillinger.5193 > flynn.54256: R [tcp sum ok] 0:0(0) ack 278379581 win 0
	0x0000:  000e 0c66 83a8 0004 23ae cb68 0800 4500  ...f....#..h..E.
	0x0010:  0028 0d73 4000 4006 1756 0a01 0102 0a01  .(.s@.@..V......
	0x0020:  0104 1449 d3f0 0000 0000 1097 bc3d 5014  ...I.........=P.
	0x0030:  0000 e4ba 0000 0000 0000 0000            ............
20:46:21.893021 IP (tos 0x0, ttl  64, id 3444, offset 0, flags [DF], proto 6, length: 40) dillinger.38292 > flynn.54256: R [tcp sum ok] 0:0(0) ack 278379581 win 0
	0x0000:  000e 0c66 83a8 0004 23ae cb68 0800 4500  ...f....#..h..E.
	0x0010:  0028 0d74 4000 4006 1755 0a01 0102 0a01  .(.t@.@..U......
	0x0020:  0104 9594 d3f0 0000 0000 1097 bc3d 5014  .............=P.
	0x0030:  0000 636f 0000 0000 0000 0000            ..co........
20:46:21.893022 IP (tos 0x0, ttl  58, id 27291, offset 0, flags [none], proto 6, length: 44) flynn.54256 > dillinger.355: S [tcp sum ok] 278379580:278379580(0) win 3072 <mss 1460>
	0x0000:  0004 23ae cb68 000e 0c66 83a8 0800 4500  ..#..h...f....E.
	0x0010:  002c 6a9b 0000 3a06 002a 0a01 0104 0a01  .,j...:..*......
	0x0020:  0102 d3f0 0163 1097 bc3c 0000 0000 6002  .....c...<....`.
	0x0030:  0c00 d3f7 0000 0204 05b4                 ..........
20:46:21.893026 IP (tos 0x0, ttl  64, id 3445, offset 0, flags [DF], proto 6, length: 40) dillinger.962 > flynn.54256: R [tcp sum ok] 0:0(0) ack 278379581 win 0
	0x0000:  000e 0c66 83a8 0004 23ae cb68 0800 4500  ...f....#..h..E.
	0x0010:  0028 0d75 4000 4006 1754 0a01 0102 0a01  .(.u@.@..T......
	0x0020:  0104 03c2 d3f0 0000 0000 1097 bc3d 5014  .............=P.
	0x0030:  0000 f541 0000 0000 0000 0000            ...A........
20:46:21.893031 IP (tos 0x0, ttl  64, id 3446, offset 0, flags [DF], proto 6, length: 40) dillinger.2232 > flynn.54256: R [tcp sum ok] 0:0(0) ack 278379581 win 0
	0x0000:  000e 0c66 83a8 0004 23ae cb68 0800 4500  ...f....#..h..E.
	0x0010:  0028 0d76 4000 4006 1753 0a01 0102 0a01  .(.v@.@..S......
	0x0020:  0104 08b8 d3f0 0000 0000 1097 bc3d 5014  .............=P.
	0x0030:  0000 f04b 0000 0000 0000 0000            ...K........
20:46:21.893036 IP (tos 0x0, ttl  64, id 3447, offset 0, flags [DF], proto 6, length: 40) dillinger.292 > flynn.54256: R [tcp sum ok] 0:0(0) ack 278379581 win 0
	0x0000:  000e 0c66 83a8 0004 23ae cb68 0800 4500  ...f....#..h..E.
	0x0010:  0028 0d77 4000 4006 1752 0a01 0102 0a01  .(.w@.@..R......
	0x0020:  0104 0124 d3f0 0000 0000 1097 bc3d 5014  ...$.........=P.
	0x0030:  0000 f7df 0000 0000 0000 0000            ............
20:46:21.893041 IP (tos 0x0, ttl  64, id 3448, offset 0, flags [DF], proto 6, length: 40) dillinger.632 > flynn.54256: R [tcp sum ok] 0:0(0) ack 278379581 win 0
	0x0000:  000e 0c66 83a8 0004 23ae cb68 0800 4500  ...f....#..h..E.
	0x0010:  0028 0d78 4000 4006 1751 0a01 0102 0a01  .(.x@.@..Q......
	0x0020:  0104 0278 d3f0 0000 0000 1097 bc3d 5014  ...x.........=P.
	0x0030:  0000 f68b 0000 0000 0000 0000            ............
20:46:21.893045 IP (tos 0x0, ttl  64, id 3449, offset 0, flags [DF], proto 6, length: 40) dillinger.681 > flynn.54256: R [tcp sum ok] 0:0(0) ack 278379581 win 0
	0x0000:  000e 0c66 83a8 0004 23ae cb68 0800 4500  ...f....#..h..E.
	0x0010:  0028 0d79 4000 4006 1750 0a01 0102 0a01  .(.y@.@..P......
	0x0020:  0104 02a9 d3f0 0000 0000 1097 bc3d 5014  .............=P.
	0x0030:  0000 f65a 0000 0000 0000 0000            ...Z........
20:46:21.893051 IP (tos 0x0, ttl  56, id 21340, offset 0, flags [none], proto 6, length: 44) flynn.54256 > dillinger.1666: S [tcp sum ok] 278379580:278379580(0) win 1024 <mss 1460>
	0x0000:  0004 23ae cb68 000e 0c66 83a8 0800 4500  ..#..h...f....E.
	0x0010:  002c 535c 0000 3806 1969 0a01 0104 0a01  .,S\..8..i......
	0x0020:  0102 d3f0 0682 1097 bc3c 0000 0000 6002  .........<....`.
	0x0030:  0400 d6d8 0000 0204 05b4                 ..........
20:46:21.893051 IP (tos 0x0, ttl  64, id 3450, offset 0, flags [DF], proto 6, length: 40) dillinger.418 > flynn.54256: R [tcp sum ok] 0:0(0) ack 278379581 win 0
	0x0000:  000e 0c66 83a8 0004 23ae cb68 0800 4500  ...f....#..h..E.
	0x0010:  0028 0d7a 4000 4006 174f 0a01 0102 0a01  .(.z@.@..O......
	0x0020:  0104 01a2 d3f0 0000 0000 1097 bc3d 5014  .............=P.
	0x0030:  0000 f761 0000 0000 0000 0000            ...a........
20:46:21.893081 IP (tos 0x0, ttl  54, id 64343, offset 0, flags [none], proto 6, length: 44) flynn.54256 > dillinger.1391: S [tcp sum ok] 278379580:278379580(0) win 3072 <mss 1460>
	0x0000:  0004 23ae cb68 000e 0c66 83a8 0800 4500  ..#..h...f....E.
	0x0010:  002c fb57 0000 3606 736d 0a01 0104 0a01  .,.W..6.sm......
	0x0020:  0102 d3f0 056f 1097 bc3c 0000 0000 6002  .....o...<....`.
	0x0030:  0c00 cfeb 0000 0204 05b4                 ..........
20:46:21.893110 IP (tos 0x0, ttl  50, id 13140, offset 0, flags [none], proto 6, length: 44) flynn.54256 > dillinger.tftp: S [tcp sum ok] 278379580:278379580(0) win 3072 <mss 1460>
	0x0000:  0004 23ae cb68 000e 0c66 83a8 0800 4500  ..#..h...f....E.
	0x0010:  002c 3354 0000 3206 3f71 0a01 0104 0a01  .,3T..2.?q......
	0x0020:  0102 d3f0 0045 1097 bc3c 0000 0000 6002  .....E...<....`.
	0x0030:  0c00 d515 0000 0204 05b4                 ..........
20:46:21.893144 IP (tos 0x0, ttl  43, id 22238, offset 0, flags [none], proto 6, length: 44) flynn.54256 > dillinger.31337: S [tcp sum ok] 278379580:278379580(0) win 4096 <mss 1460>
	0x0000:  0004 23ae cb68 000e 0c66 83a8 0800 4500  ..#..h...f....E.
	0x0010:  002c 56de 0000 2b06 22e7 0a01 0104 0a01  .,V...+.".......
	0x0020:  0102 d3f0 7a69 1097 bc3c 0000 0000 6002  ....zi...<....`.
	0x0030:  1000 56f1 0000 0204 05b4                 ..V.......
20:46:21.893172 IP (tos 0x0, ttl  54, id 44041, offset 0, flags [none], proto 6, length: 44) flynn.54256 > dillinger.834: S [tcp sum ok] 278379580:278379580(0) win 3072 <mss 1460>
	0x0000:  0004 23ae cb68 000e 0c66 83a8 0800 4500  ..#..h...f....E.
	0x0010:  002c ac09 0000 3606 c2bb 0a01 0104 0a01  .,....6.........
	0x0020:  0102 d3f0 0342 1097 bc3c 0000 0000 6002  .....B...<....`.
	0x0030:  0c00 d218 0000 0204 05b4                 ..........
20:46:21.893202 IP (tos 0x0, ttl  41, id 53113, offset 0, flags [none], proto 6, length: 44) flynn.54256 > dillinger.467: S [tcp sum ok] 278379580:278379580(0) win 2048 <mss 1460>
	0x0000:  0004 23ae cb68 000e 0c66 83a8 0800 4500  ..#..h...f....E.
	0x0010:  002c cf79 0000 2906 ac4b 0a01 0104 0a01  .,.y..)..K......
	0x0020:  0102 d3f0 01d3 1097 bc3c 0000 0000 6002  .........<....`.
	0x0030:  0800 d787 0000 0204 05b4                 ..........
20:46:21.893232 IP (tos 0x0, ttl  49, id 40871, offset 0, flags [none], proto 6, length: 44) flynn.54256 > dillinger.345: S [tcp sum ok] 278379580:278379580(0) win 2048 <mss 1460>
	0x0000:  0004 23ae cb68 000e 0c66 83a8 0800 4500  ..#..h...f....E.
	0x0010:  002c 9fa7 0000 3106 d41d 0a01 0104 0a01  .,....1.........
	0x0020:  0102 d3f0 0159 1097 bc3c 0000 0000 6002  .....Y...<....`.
	0x0030:  0800 d801 0000 0204 05b4                 ..........
